{
  "address": "0xCf7Ed3AccA5a467e9e704C703E8D87F634fB0Fc9",
  "abi": [
    {
      "inputs": [],
      "name": "NeedsMoreThanZero",
      "type": "error"
    },
    {
      "inputs": [],
      "name": "NeedsToBeActive",
      "type": "error"
    },
    {
      "inputs": [],
      "name": "NeedsToBeBorrower",
      "type": "error"
    },
    {
      "inputs": [],
      "name": "NeedsToBeLender",
      "type": "error"
    },
    {
      "inputs": [],
      "name": "NeedsToBeRepaidOrPending",
      "type": "error"
    },
    {
      "inputs": [],
      "name": "TransferFailed",
      "type": "error"
    },
    {
      "anonymous": false,
      "inputs": [
        {
          "indexed": true,
          "internalType": "address",
          "name": "borrower",
          "type": "address"
        },
        {
          "indexed": true,
          "internalType": "uint256",
          "name": "id",
          "type": "uint256"
        },
        {
          "indexed": true,
          "internalType": "uint256",
          "name": "amount",
          "type": "uint256"
        }
      ],
      "name": "Activate",
      "type": "event"
    },
    {
      "anonymous": false,
      "inputs": [
        {
          "indexed": true,
          "internalType": "address",
          "name": "borrower",
          "type": "address"
        },
        {
          "indexed": true,
          "internalType": "uint256",
          "name": "id",
          "type": "uint256"
        },
        {
          "indexed": true,
          "internalType": "uint256",
          "name": "amount",
          "type": "uint256"
        }
      ],
      "name": "AddCollateral",
      "type": "event"
    },
    {
      "anonymous": false,
      "inputs": [
        {
          "indexed": true,
          "internalType": "address",
          "name": "lender",
          "type": "address"
        },
        {
          "indexed": true,
          "internalType": "address",
          "name": "borrower",
          "type": "address"
        },
        {
          "indexed": true,
          "internalType": "uint256",
          "name": "id",
          "type": "uint256"
        }
      ],
      "name": "Closed",
      "type": "event"
    },
    {
      "anonymous": false,
      "inputs": [
        {
          "indexed": true,
          "internalType": "address",
          "name": "borrower",
          "type": "address"
        },
        {
          "indexed": false,
          "internalType": "uint256",
          "name": "remainingValue",
          "type": "uint256"
        }
      ],
      "name": "Liquidate",
      "type": "event"
    },
    {
      "anonymous": false,
      "inputs": [
        {
          "indexed": true,
          "internalType": "address",
          "name": "previousOwner",
          "type": "address"
        },
        {
          "indexed": true,
          "internalType": "address",
          "name": "newOwner",
          "type": "address"
        }
      ],
      "name": "OwnershipTransferred",
      "type": "event"
    },
    {
      "anonymous": false,
      "inputs": [
        {
          "indexed": true,
          "internalType": "address",
          "name": "lender",
          "type": "address"
        },
        {
          "indexed": true,
          "internalType": "uint256",
          "name": "id",
          "type": "uint256"
        },
        {
          "indexed": true,
          "internalType": "uint256",
          "name": "amount",
          "type": "uint256"
        }
      ],
      "name": "Propose",
      "type": "event"
    },
    {
      "anonymous": false,
      "inputs": [
        {
          "indexed": false,
          "internalType": "address",
          "name": "sender",
          "type": "address"
        },
        {
          "indexed": false,
          "internalType": "uint256",
          "name": "amount",
          "type": "uint256"
        }
      ],
      "name": "Received",
      "type": "event"
    },
    {
      "anonymous": false,
      "inputs": [
        {
          "indexed": true,
          "internalType": "address",
          "name": "lender",
          "type": "address"
        },
        {
          "indexed": true,
          "internalType": "uint256",
          "name": "id",
          "type": "uint256"
        },
        {
          "indexed": true,
          "internalType": "uint256",
          "name": "amount",
          "type": "uint256"
        }
      ],
      "name": "Repaid",
      "type": "event"
    },
    {
      "anonymous": false,
      "inputs": [
        {
          "indexed": true,
          "internalType": "address",
          "name": "borrower",
          "type": "address"
        },
        {
          "indexed": true,
          "internalType": "uint256",
          "name": "id",
          "type": "uint256"
        },
        {
          "indexed": true,
          "internalType": "uint256",
          "name": "amount",
          "type": "uint256"
        }
      ],
      "name": "Repay",
      "type": "event"
    },
    {
      "anonymous": false,
      "inputs": [
        {
          "indexed": true,
          "internalType": "address",
          "name": "borrower",
          "type": "address"
        },
        {
          "indexed": true,
          "internalType": "uint256",
          "name": "id",
          "type": "uint256"
        },
        {
          "indexed": true,
          "internalType": "uint256",
          "name": "amount",
          "type": "uint256"
        }
      ],
      "name": "WithdrawCollateral",
      "type": "event"
    },
    {
      "inputs": [],
      "name": "LIQUIDATION_THRESHOLD",
      "outputs": [
        {
          "internalType": "uint256",
          "name": "",
          "type": "uint256"
        }
      ],
      "stateMutability": "view",
      "type": "function"
    },
    {
      "inputs": [
        {
          "internalType": "uint256",
          "name": "id",
          "type": "uint256"
        },
        {
          "internalType": "uint256",
          "name": "amount",
          "type": "uint256"
        }
      ],
      "name": "activate",
      "outputs": [],
      "stateMutability": "payable",
      "type": "function"
    },
    {
      "inputs": [
        {
          "internalType": "uint256",
          "name": "id",
          "type": "uint256"
        },
        {
          "internalType": "uint256",
          "name": "amount",
          "type": "uint256"
        }
      ],
      "name": "addCollateral",
      "outputs": [],
      "stateMutability": "payable",
      "type": "function"
    },
    {
      "inputs": [
        {
          "internalType": "uint256",
          "name": "id",
          "type": "uint256"
        }
      ],
      "name": "close",
      "outputs": [],
      "stateMutability": "nonpayable",
      "type": "function"
    },
    {
      "inputs": [
        {
          "internalType": "uint256",
          "name": "amount",
          "type": "uint256"
        }
      ],
      "name": "getEthValueFromToken",
      "outputs": [
        {
          "internalType": "uint256",
          "name": "",
          "type": "uint256"
        }
      ],
      "stateMutability": "view",
      "type": "function"
    },
    {
      "inputs": [
        {
          "internalType": "uint256",
          "name": "id",
          "type": "uint256"
        }
      ],
      "name": "getMinReqCollateral",
      "outputs": [
        {
          "internalType": "uint256",
          "name": "",
          "type": "uint256"
        }
      ],
      "stateMutability": "view",
      "type": "function"
    },
    {
      "inputs": [
        {
          "internalType": "address",
          "name": "account",
          "type": "address"
        },
        {
          "internalType": "uint256",
          "name": "amount",
          "type": "uint256"
        }
      ],
      "name": "mint",
      "outputs": [],
      "stateMutability": "nonpayable",
      "type": "function"
    },
    {
      "inputs": [],
      "name": "owner",
      "outputs": [
        {
          "internalType": "address",
          "name": "",
          "type": "address"
        }
      ],
      "stateMutability": "view",
      "type": "function"
    },
    {
      "inputs": [
        {
          "internalType": "uint256",
          "name": "amount",
          "type": "uint256"
        },
        {
          "internalType": "uint256",
          "name": "duration",
          "type": "uint256"
        },
        {
          "internalType": "uint256",
          "name": "rate",
          "type": "uint256"
        }
      ],
      "name": "propose",
      "outputs": [
        {
          "internalType": "uint256",
          "name": "id",
          "type": "uint256"
        }
      ],
      "stateMutability": "nonpayable",
      "type": "function"
    },
    {
      "inputs": [],
      "name": "renounceOwnership",
      "outputs": [],
      "stateMutability": "nonpayable",
      "type": "function"
    },
    {
      "inputs": [
        {
          "internalType": "uint256",
          "name": "id",
          "type": "uint256"
        },
        {
          "internalType": "uint256",
          "name": "amount",
          "type": "uint256"
        }
      ],
      "name": "repay",
      "outputs": [],
      "stateMutability": "nonpayable",
      "type": "function"
    },
    {
      "inputs": [
        {
          "internalType": "address",
          "name": "",
          "type": "address"
        },
        {
          "internalType": "uint256",
          "name": "",
          "type": "uint256"
        }
      ],
      "name": "s_accountToIDs",
      "outputs": [
        {
          "internalType": "uint256",
          "name": "",
          "type": "uint256"
        }
      ],
      "stateMutability": "view",
      "type": "function"
    },
    {
      "inputs": [
        {
          "internalType": "uint256",
          "name": "",
          "type": "uint256"
        }
      ],
      "name": "s_idToAgreement",
      "outputs": [
        {
          "internalType": "uint256",
          "name": "deposit",
          "type": "uint256"
        },
        {
          "internalType": "uint256",
          "name": "collateral",
          "type": "uint256"
        },
        {
          "internalType": "uint256",
          "name": "repaidAmt",
          "type": "uint256"
        },
        {
          "internalType": "uint256",
          "name": "futureValue",
          "type": "uint256"
        },
        {
          "internalType": "uint256",
          "name": "start",
          "type": "uint256"
        },
        {
          "internalType": "uint256",
          "name": "duration",
          "type": "uint256"
        },
        {
          "internalType": "uint256",
          "name": "rate",
          "type": "uint256"
        },
        {
          "internalType": "enum Status",
          "name": "status",
          "type": "uint8"
        },
        {
          "internalType": "address payable",
          "name": "lender",
          "type": "address"
        },
        {
          "internalType": "address payable",
          "name": "borrower",
          "type": "address"
        }
      ],
      "stateMutability": "view",
      "type": "function"
    },
    {
      "inputs": [],
      "name": "s_lenderToken",
      "outputs": [
        {
          "internalType": "contract IToken",
          "name": "",
          "type": "address"
        }
      ],
      "stateMutability": "view",
      "type": "function"
    },
    {
      "inputs": [],
      "name": "s_numIDs",
      "outputs": [
        {
          "internalType": "uint256",
          "name": "",
          "type": "uint256"
        }
      ],
      "stateMutability": "view",
      "type": "function"
    },
    {
      "inputs": [],
      "name": "s_priceFeed",
      "outputs": [
        {
          "internalType": "contract AggregatorV3Interface",
          "name": "",
          "type": "address"
        }
      ],
      "stateMutability": "view",
      "type": "function"
    },
    {
      "inputs": [
        {
          "internalType": "address",
          "name": "token",
          "type": "address"
        },
        {
          "internalType": "address",
          "name": "priceFeed",
          "type": "address"
        }
      ],
      "name": "setLenderToken",
      "outputs": [],
      "stateMutability": "nonpayable",
      "type": "function"
    },
    {
      "inputs": [
        {
          "internalType": "address",
          "name": "newOwner",
          "type": "address"
        }
      ],
      "name": "transferOwnership",
      "outputs": [],
      "stateMutability": "nonpayable",
      "type": "function"
    },
    {
      "inputs": [
        {
          "internalType": "uint256",
          "name": "id",
          "type": "uint256"
        },
        {
          "internalType": "uint256",
          "name": "amount",
          "type": "uint256"
        }
      ],
      "name": "withdrawCollateral",
      "outputs": [],
      "stateMutability": "nonpayable",
      "type": "function"
    },
    {
      "stateMutability": "payable",
      "type": "receive"
    }
  ],
  "transactionHash": "0x11c0c3ed7834a09c80d29d97fe1ab99c94f87990aa424e28a39535f2d997dc9b",
  "args": [],
  "numDeployments": 1,
  "solcInputHash": "5a67e52eb60128eb69c26ed7d1904afb",
  "bytecode": "0x60806040523480156200001157600080fd5b5060016000819055506200003a6200002e6200004060201b60201c565b6200004860201b60201c565b6200010e565b600033905090565b6000600160009054906101000a900473ffffffffffffffffffffffffffffffffffffffff16905081600160006101000a81548173ffffffffffffffffffffffffffffffffffffffff021916908373ffffffffffffffffffffffffffffffffffffffff1602179055508173ffffffffffffffffffffffffffffffffffffffff168173ffffffffffffffffffffffffffffffffffffffff167f8be0079c531659141344cd1fd0a4f28419497f9722a3daafe3b4186f6b6457e060405160405180910390a35050565b6132dc806200011e6000396000f3fe6080604052600436106101185760003560e01c80638da5cb5b116100a0578063a8f35adf11610064578063a8f35adf146103dd578063d35b0adc146103f9578063d51ac14414610436578063d8aed14514610461578063f2fde38b1461048a57610158565b80638da5cb5b146102fa5780638ea8f83c1461032557806390a8ae9b146103415780639bf9e7151461036c578063a32d1968146103b257610158565b806340376d56116100e757806340376d561461021757806340c10f19146102545780635177e3421461027d578063715018a6146102ba578063767a7b05146102d157610158565b8063030fdffb1461015d5780630aebeb4e1461019a5780630ec3b027146101c35780631f9ff79d146101ee57610158565b36610158577f88a5966d370b9919b20f3e2c13ff65706f196a4e32cc2c12bf57088f88525874333460405161014e929190612a07565b60405180910390a1005b600080fd5b34801561016957600080fd5b50610184600480360381019061017f91906126fd565b6104b3565b6040516101919190612b26565b60405180910390f35b3480156101a657600080fd5b506101c160048036038101906101bc91906126fd565b6106e8565b005b3480156101cf57600080fd5b506101d8610c3a565b6040516101e59190612a30565b60405180910390f35b3480156101fa57600080fd5b506102156004803603810190610210919061265c565b610c60565b005b34801561022357600080fd5b5061023e60048036038101906102399190612762565b610d62565b60405161024b9190612b26565b60405180910390f35b34801561026057600080fd5b5061027b60048036038101906102769190612698565b6111e0565b005b34801561028957600080fd5b506102a4600480360381019061029f9190612698565b611273565b6040516102b19190612b26565b60405180910390f35b3480156102c657600080fd5b506102cf6112a4565b005b3480156102dd57600080fd5b506102f860048036038101906102f39190612726565b61132c565b005b34801561030657600080fd5b5061030f6117b9565b60405161031c919061298c565b60405180910390f35b61033f600480360381019061033a9190612726565b6117e3565b005b34801561034d57600080fd5b50610356611afa565b6040516103639190612b26565b60405180910390f35b34801561037857600080fd5b50610393600480360381019061038e91906126fd565b611aff565b6040516103a99a99989796959493929190612b41565b60405180910390f35b3480156103be57600080fd5b506103c7611ba0565b6040516103d49190612b26565b60405180910390f35b6103f760048036038101906103f29190612726565b611ba6565b005b34801561040557600080fd5b50610420600480360381019061041b91906126fd565b611dea565b60405161042d9190612b26565b60405180910390f35b34801561044257600080fd5b5061044b611fc6565b6040516104589190612a4b565b60405180910390f35b34801561046d57600080fd5b5061048860048036038101906104839190612726565b611fec565b005b34801561049657600080fd5b506104b160048036038101906104ac9190612633565b6123da565b005b600080600660009054906101000a900473ffffffffffffffffffffffffffffffffffffffff1673ffffffffffffffffffffffffffffffffffffffff1663feaf968c6040518163ffffffff1660e01b815260040160a06040518083038186803b15801561051e57600080fd5b505afa158015610532573d6000803e3d6000fd5b505050506040513d601f19601f8201168201806040525081019061055691906127b1565b5050509150506000600660009054906101000a900473ffffffffffffffffffffffffffffffffffffffff1673ffffffffffffffffffffffffffffffffffffffff1663313ce5676040518163ffffffff1660e01b815260040160206040518083038186803b1580156105c657600080fd5b505afa1580156105da573d6000803e3d6000fd5b505050506040513d601f19601f820116820180604052508101906105fe9190612828565b90506000600560009054906101000a900473ffffffffffffffffffffffffffffffffffffffff1673ffffffffffffffffffffffffffffffffffffffff1663313ce5676040518163ffffffff1660e01b815260040160206040518083038186803b15801561066a57600080fd5b505afa15801561067e573d6000803e3d6000fd5b505050506040513d601f19601f820116820180604052508101906106a29190612828565b905082818360126106b39190612c44565b6106bd9190612eab565b600a6106c99190612cff565b866106d49190612e1d565b6106de9190612c7b565b9350505050919050565b6002600054141561072e576040517f08c379a000000000000000000000000000000000000000000000000000000000815260040161072590612b06565b60405180910390fd5b6002600081905550803373ffffffffffffffffffffffffffffffffffffffff166002600083815260200190815260200160002060070160019054906101000a900473ffffffffffffffffffffffffffffffffffffffff1673ffffffffffffffffffffffffffffffffffffffff16146107d2576040517f3a7d412400000000000000000000000000000000000000000000000000000000815260040160405180910390fd5b816002600381111561080d577f4e487b7100000000000000000000000000000000000000000000000000000000600052602160045260246000fd5b6002600083815260200190815260200160002060070160009054906101000a900460ff166003811115610869577f4e487b7100000000000000000000000000000000000000000000000000000000600052602160045260246000fd5b1415801561090b5750600060038111156108ac577f4e487b7100000000000000000000000000000000000000000000000000000000600052602160045260246000fd5b6002600083815260200190815260200160002060070160009054906101000a900460ff166003811115610908577f4e487b7100000000000000000000000000000000000000000000000000000000600052602160045260246000fd5b14155b15610942576040517ff5086d4c00000000000000000000000000000000000000000000000000000000815260040160405180910390fd5b60006002600085815260200190815260200160002090506000816003015490506000600381111561099c577f4e487b7100000000000000000000000000000000000000000000000000000000600052602160045260246000fd5b8260070160009054906101000a900460ff1660038111156109e6577f4e487b7100000000000000000000000000000000000000000000000000000000600052602160045260246000fd5b14610a265780826002015414610a25577f4e487b7100000000000000000000000000000000000000000000000000000000600052600160045260246000fd5b5b6000600560009054906101000a900473ffffffffffffffffffffffffffffffffffffffff1673ffffffffffffffffffffffffffffffffffffffff1663a9059cbb8460070160019054906101000a900473ffffffffffffffffffffffffffffffffffffffff16846040518363ffffffff1660e01b8152600401610aa99291906129a7565b602060405180830381600087803b158015610ac357600080fd5b505af1158015610ad7573d6000803e3d6000fd5b505050506040513d601f19601f82011682018060405250810190610afb91906126d4565b905080610b34576040517f90b8ec1800000000000000000000000000000000000000000000000000000000815260040160405180910390fd5b858360080160009054906101000a900473ffffffffffffffffffffffffffffffffffffffff1673ffffffffffffffffffffffffffffffffffffffff168460070160019054906101000a900473ffffffffffffffffffffffffffffffffffffffff1673ffffffffffffffffffffffffffffffffffffffff167f62d095e2c4513ab737ede7cbd30334eccb10424cbc543ebb5c458b5174cddcd560405160405180910390a460038360070160006101000a81548160ff02191690836003811115610c25577f4e487b7100000000000000000000000000000000000000000000000000000000600052602160045260246000fd5b02179055505050505050600160008190555050565b600660009054906101000a900473ffffffffffffffffffffffffffffffffffffffff1681565b610c686124d2565b73ffffffffffffffffffffffffffffffffffffffff16610c866117b9565b73ffffffffffffffffffffffffffffffffffffffff1614610cdc576040517f08c379a0000000000000000000000000000000000000000000000000000000008152600401610cd390612ac6565b60405180910390fd5b81600560006101000a81548173ffffffffffffffffffffffffffffffffffffffff021916908373ffffffffffffffffffffffffffffffffffffffff16021790555080600660006101000a81548173ffffffffffffffffffffffffffffffffffffffff021916908373ffffffffffffffffffffffffffffffffffffffff1602179055505050565b600060026000541415610daa576040517f08c379a0000000000000000000000000000000000000000000000000000000008152600401610da190612b06565b60405180910390fd5b6002600081905550836000811415610dee576040517ff45911f000000000000000000000000000000000000000000000000000000000815260040160405180910390fd5b60006103e885856103e8610e029190612bee565b88610e0d9190612e1d565b610e179190612e1d565b610e219190612c7b565b9050600060405180610140016040528088815260200160008152602001600081526020018381526020016000815260200187815260200186815260200160006003811115610e98577f4e487b7100000000000000000000000000000000000000000000000000000000600052602160045260246000fd5b81526020013373ffffffffffffffffffffffffffffffffffffffff168152602001600073ffffffffffffffffffffffffffffffffffffffff1681525090506000600560009054906101000a900473ffffffffffffffffffffffffffffffffffffffff1673ffffffffffffffffffffffffffffffffffffffff166323b872dd33308b6040518463ffffffff1660e01b8152600401610f37939291906129d0565b602060405180830381600087803b158015610f5157600080fd5b505af1158015610f65573d6000803e3d6000fd5b505050506040513d601f19601f82011682018060405250810190610f8991906126d4565b905080610fc2576040517f90b8ec1800000000000000000000000000000000000000000000000000000000815260040160405180910390fd5b60046000815480929190610fd590613009565b919050555060045494508160026000878152602001908152602001600020600082015181600001556020820151816001015560408201518160020155606082015181600301556080820151816004015560a0820151816005015560c0820151816006015560e08201518160070160006101000a81548160ff0219169083600381111561108a577f4e487b7100000000000000000000000000000000000000000000000000000000600052602160045260246000fd5b02179055506101008201518160070160016101000a81548173ffffffffffffffffffffffffffffffffffffffff021916908373ffffffffffffffffffffffffffffffffffffffff1602179055506101208201518160080160006101000a81548173ffffffffffffffffffffffffffffffffffffffff021916908373ffffffffffffffffffffffffffffffffffffffff160217905550905050600360003373ffffffffffffffffffffffffffffffffffffffff1673ffffffffffffffffffffffffffffffffffffffff16815260200190815260200160002085908060018154018082558091505060019003906000526020600020016000909190919091505587853373ffffffffffffffffffffffffffffffffffffffff167ffcb5913d5cff8e37667ef76381030e4118bc2091969ecf14726dd959e0e15c0760405160405180910390a45050505060016000819055509392505050565b600560009054906101000a900473ffffffffffffffffffffffffffffffffffffffff1673ffffffffffffffffffffffffffffffffffffffff166340c10f1983836040518363ffffffff1660e01b815260040161123d929190612a07565b600060405180830381600087803b15801561125757600080fd5b505af115801561126b573d6000803e3d6000fd5b505050505050565b6003602052816000526040600020818154811061128f57600080fd5b90600052602060002001600091509150505481565b6112ac6124d2565b73ffffffffffffffffffffffffffffffffffffffff166112ca6117b9565b73ffffffffffffffffffffffffffffffffffffffff1614611320576040517f08c379a000000000000000000000000000000000000000000000000000000000815260040161131790612ac6565b60405180910390fd5b61132a60006124da565b565b60026000541415611372576040517f08c379a000000000000000000000000000000000000000000000000000000000815260040161136990612b06565b60405180910390fd5b6002600081905550813373ffffffffffffffffffffffffffffffffffffffff166002600083815260200190815260200160002060080160009054906101000a900473ffffffffffffffffffffffffffffffffffffffff1673ffffffffffffffffffffffffffffffffffffffff1614611416576040517fc0e58a0500000000000000000000000000000000000000000000000000000000815260040160405180910390fd5b816000811415611452576040517ff45911f000000000000000000000000000000000000000000000000000000000815260040160405180910390fd5b600060026000868152602001908152602001600020905060008160070160009054906101000a900460ff169050600082600101549050600061149388611dea565b9050600160038111156114cf577f4e487b7100000000000000000000000000000000000000000000000000000000600052602160045260246000fd5b836003811115611508577f4e487b7100000000000000000000000000000000000000000000000000000000600052602160045260246000fd5b14156115605780878361151b9190612e77565b1161155b576040517f08c379a000000000000000000000000000000000000000000000000000000000815260040161155290612ae6565b60405180910390fd5b61168e565b6002600381111561159a577f4e487b7100000000000000000000000000000000000000000000000000000000600052602160045260246000fd5b8360038111156115d3577f4e487b7100000000000000000000000000000000000000000000000000000000600052602160045260246000fd5b148061164e5750600380811115611613577f4e487b7100000000000000000000000000000000000000000000000000000000600052602160045260246000fd5b83600381111561164c577f4e487b7100000000000000000000000000000000000000000000000000000000600052602160045260246000fd5b145b61168d576040517f08c379a000000000000000000000000000000000000000000000000000000000815260040161168490612a86565b60405180910390fd5b5b868460010160008282546116a29190612e77565b9250508190555060008460080160009054906101000a900473ffffffffffffffffffffffffffffffffffffffff1673ffffffffffffffffffffffffffffffffffffffff166108fc899081150290604051600060405180830381858888f1935050505090508061173d576040517f90b8ec1800000000000000000000000000000000000000000000000000000000815260040160405180910390fd5b87898660080160009054906101000a900473ffffffffffffffffffffffffffffffffffffffff1673ffffffffffffffffffffffffffffffffffffffff167f627a692d5a03ab34732c0d2aa319f3ecdebdc4528f383eabcb25441dc0a70cfb60405160405180910390a45050505050505060016000819055505050565b6000600160009054906101000a900473ffffffffffffffffffffffffffffffffffffffff16905090565b60026000541415611829576040517f08c379a000000000000000000000000000000000000000000000000000000000815260040161182090612b06565b60405180910390fd5b600260008190555034600081141561186d576040517ff45911f000000000000000000000000000000000000000000000000000000000815260040160405180910390fd5b8134146118af576040517f08c379a00000000000000000000000000000000000000000000000000000000081526004016118a690612a66565b60405180910390fd5b6118b883611dea565b82116118f9576040517f08c379a00000000000000000000000000000000000000000000000000000000081526004016118f090612ae6565b60405180910390fd5b6000600260008581526020019081526020016000209050428160040181905550338160080160006101000a81548173ffffffffffffffffffffffffffffffffffffffff021916908373ffffffffffffffffffffffffffffffffffffffff16021790555060018160070160006101000a81548160ff021916908360038111156119aa577f4e487b7100000000000000000000000000000000000000000000000000000000600052602160045260246000fd5b02179055508281600101819055506000600560009054906101000a900473ffffffffffffffffffffffffffffffffffffffff1673ffffffffffffffffffffffffffffffffffffffff1663a9059cbb3384600001546040518363ffffffff1660e01b8152600401611a1b929190612a07565b602060405180830381600087803b158015611a3557600080fd5b505af1158015611a49573d6000803e3d6000fd5b505050506040513d601f19601f82011682018060405250810190611a6d91906126d4565b905080611aa6576040517f90b8ec1800000000000000000000000000000000000000000000000000000000815260040160405180910390fd5b83853373ffffffffffffffffffffffffffffffffffffffff167fbd91f62af1740ef6fd0b373ce523c11845b4c4699f80233ee0092bfd0a222ccf60405160405180910390a450505060016000819055505050565b605081565b60026020528060005260406000206000915090508060000154908060010154908060020154908060030154908060040154908060050154908060060154908060070160009054906101000a900460ff16908060070160019054906101000a900473ffffffffffffffffffffffffffffffffffffffff16908060080160009054906101000a900473ffffffffffffffffffffffffffffffffffffffff1690508a565b60045481565b60026000541415611bec576040517f08c379a0000000000000000000000000000000000000000000000000000000008152600401611be390612b06565b60405180910390fd5b60026000819055508160016003811115611c2f577f4e487b7100000000000000000000000000000000000000000000000000000000600052602160045260246000fd5b6002600083815260200190815260200160002060070160009054906101000a900460ff166003811115611c8b577f4e487b7100000000000000000000000000000000000000000000000000000000600052602160045260246000fd5b14611cc2576040517f9206086a00000000000000000000000000000000000000000000000000000000815260040160405180910390fd5b816000811415611cfe576040517ff45911f000000000000000000000000000000000000000000000000000000000815260040160405180910390fd5b823414611d40576040517f08c379a0000000000000000000000000000000000000000000000000000000008152600401611d3790612a66565b60405180910390fd5b600060026000868152602001908152602001600020905083816001016000828254611d6b9190612bee565b9250508190555083858260080160009054906101000a900473ffffffffffffffffffffffffffffffffffffffff1673ffffffffffffffffffffffffffffffffffffffff167fe3f4fa74d049cf7d64965afd6ce83c826cd313cec824ecfb9aacf36886090b4960405160405180910390a450505060016000819055505050565b6000806002600084815260200190815260200160002060405180610140016040529081600082015481526020016001820154815260200160028201548152602001600382015481526020016004820154815260200160058201548152602001600682015481526020016007820160009054906101000a900460ff166003811115611e9d577f4e487b7100000000000000000000000000000000000000000000000000000000600052602160045260246000fd5b6003811115611ed5577f4e487b7100000000000000000000000000000000000000000000000000000000600052602160045260246000fd5b81526020016007820160019054906101000a900473ffffffffffffffffffffffffffffffffffffffff1673ffffffffffffffffffffffffffffffffffffffff1673ffffffffffffffffffffffffffffffffffffffff1681526020016008820160009054906101000a900473ffffffffffffffffffffffffffffffffffffffff1673ffffffffffffffffffffffffffffffffffffffff1673ffffffffffffffffffffffffffffffffffffffff1681525050905060006064605060c8611f999190612e77565b611fa684606001516104b3565b611fb09190612e1d565b611fba9190612c7b565b90508092505050919050565b600560009054906101000a900473ffffffffffffffffffffffffffffffffffffffff1681565b60026000541415612032576040517f08c379a000000000000000000000000000000000000000000000000000000000815260040161202990612b06565b60405180910390fd5b60026000819055508160016003811115612075577f4e487b7100000000000000000000000000000000000000000000000000000000600052602160045260246000fd5b6002600083815260200190815260200160002060070160009054906101000a900460ff1660038111156120d1577f4e487b7100000000000000000000000000000000000000000000000000000000600052602160045260246000fd5b14612108576040517f9206086a00000000000000000000000000000000000000000000000000000000815260040160405180910390fd5b816000811415612144576040517ff45911f000000000000000000000000000000000000000000000000000000000815260040160405180910390fd5b600060026000868152602001908152602001600020905060008160030154905060008260020154905081868261217a9190612bee565b111561218f57808261218c9190612e77565b95505b858360020160008282546121a39190612bee565b9250508190555081836002015414156122735760028360070160006101000a81548160ff02191690836003811115612204577f4e487b7100000000000000000000000000000000000000000000000000000000600052602160045260246000fd5b021790555081878460070160019054906101000a900473ffffffffffffffffffffffffffffffffffffffff1673ffffffffffffffffffffffffffffffffffffffff167f1b8cd61ed43bec7c6bdad3a18ffee613f99c853d16c50678d248d879e1b4343860405160405180910390a45b6000600560009054906101000a900473ffffffffffffffffffffffffffffffffffffffff1673ffffffffffffffffffffffffffffffffffffffff166323b872dd33308a6040518463ffffffff1660e01b81526004016122d4939291906129d0565b602060405180830381600087803b1580156122ee57600080fd5b505af1158015612302573d6000803e3d6000fd5b505050506040513d601f19601f8201168201806040525081019061232691906126d4565b90508061235f576040517f90b8ec1800000000000000000000000000000000000000000000000000000000815260040160405180910390fd5b86888560080160009054906101000a900473ffffffffffffffffffffffffffffffffffffffff1673ffffffffffffffffffffffffffffffffffffffff167f77c6871227e5d2dec8dadd5354f78453203e22e669cd0ec4c19d9a8c5edb31d060405160405180910390a450505050505060016000819055505050565b6123e26124d2565b73ffffffffffffffffffffffffffffffffffffffff166124006117b9565b73ffffffffffffffffffffffffffffffffffffffff1614612456576040517f08c379a000000000000000000000000000000000000000000000000000000000815260040161244d90612ac6565b60405180910390fd5b600073ffffffffffffffffffffffffffffffffffffffff168173ffffffffffffffffffffffffffffffffffffffff1614156124c6576040517f08c379a00000000000000000000000000000000000000000000000000000000081526004016124bd90612aa6565b60405180910390fd5b6124cf816124da565b50565b600033905090565b6000600160009054906101000a900473ffffffffffffffffffffffffffffffffffffffff16905081600160006101000a81548173ffffffffffffffffffffffffffffffffffffffff021916908373ffffffffffffffffffffffffffffffffffffffff1602179055508173ffffffffffffffffffffffffffffffffffffffff168173ffffffffffffffffffffffffffffffffffffffff167f8be0079c531659141344cd1fd0a4f28419497f9722a3daafe3b4186f6b6457e060405160405180910390a35050565b6000813590506125af8161321c565b92915050565b6000815190506125c481613233565b92915050565b6000815190506125d98161324a565b92915050565b6000813590506125ee81613261565b92915050565b60008151905061260381613261565b92915050565b6000815190506126188161328f565b92915050565b60008151905061262d81613278565b92915050565b60006020828403121561264557600080fd5b6000612653848285016125a0565b91505092915050565b6000806040838503121561266f57600080fd5b600061267d858286016125a0565b925050602061268e858286016125a0565b9150509250929050565b600080604083850312156126ab57600080fd5b60006126b9858286016125a0565b92505060206126ca858286016125df565b9150509250929050565b6000602082840312156126e657600080fd5b60006126f4848285016125b5565b91505092915050565b60006020828403121561270f57600080fd5b600061271d848285016125df565b91505092915050565b6000806040838503121561273957600080fd5b6000612747858286016125df565b9250506020612758858286016125df565b9150509250929050565b60008060006060848603121561277757600080fd5b6000612785868287016125df565b9350506020612796868287016125df565b92505060406127a7868287016125df565b9150509250925092565b600080600080600060a086880312156127c957600080fd5b60006127d788828901612609565b95505060206127e8888289016125ca565b94505060406127f9888289016125f4565b935050606061280a888289016125f4565b925050608061281b88828901612609565b9150509295509295909350565b60006020828403121561283a57600080fd5b60006128488482850161261e565b91505092915050565b61285a81612f79565b82525050565b61286981612ef1565b82525050565b61287881612edf565b82525050565b61288781612f8b565b82525050565b61289681612faf565b82525050565b6128a581612fd3565b82525050565b60006128b8600d83612bdd565b91506128c3826130ec565b602082019050919050565b60006128db601983612bdd565b91506128e682613115565b602082019050919050565b60006128fe602683612bdd565b91506129098261313e565b604082019050919050565b6000612921602083612bdd565b915061292c8261318d565b602082019050919050565b6000612944601583612bdd565b915061294f826131b6565b602082019050919050565b6000612967601f83612bdd565b9150612972826131df565b602082019050919050565b61298681612f4c565b82525050565b60006020820190506129a1600083018461286f565b92915050565b60006040820190506129bc6000830185612851565b6129c9602083018461297d565b9392505050565b60006060820190506129e5600083018661286f565b6129f2602083018561286f565b6129ff604083018461297d565b949350505050565b6000604082019050612a1c600083018561286f565b612a29602083018461297d565b9392505050565b6000602082019050612a45600083018461287e565b92915050565b6000602082019050612a60600083018461288d565b92915050565b60006020820190508181036000830152612a7f816128ab565b9050919050565b60006020820190508181036000830152612a9f816128ce565b9050919050565b60006020820190508181036000830152612abf816128f1565b9050919050565b60006020820190508181036000830152612adf81612914565b9050919050565b60006020820190508181036000830152612aff81612937565b9050919050565b60006020820190508181036000830152612b1f8161295a565b9050919050565b6000602082019050612b3b600083018461297d565b92915050565b600061014082019050612b57600083018d61297d565b612b64602083018c61297d565b612b71604083018b61297d565b612b7e606083018a61297d565b612b8b608083018961297d565b612b9860a083018861297d565b612ba560c083018761297d565b612bb260e083018661289c565b612bc0610100830185612860565b612bce610120830184612860565b9b9a5050505050505050505050565b600082825260208201905092915050565b6000612bf982612f4c565b9150612c0483612f4c565b9250827fffffffffffffffffffffffffffffffffffffffffffffffffffffffffffffffff03821115612c3957612c38613052565b5b828201905092915050565b6000612c4f82612f56565b9150612c5a83612f56565b92508260ff03821115612c7057612c6f613052565b5b828201905092915050565b6000612c8682612f4c565b9150612c9183612f4c565b925082612ca157612ca0613081565b5b828204905092915050565b6000808291508390505b6001851115612cf657808604811115612cd257612cd1613052565b5b6001851615612ce15780820291505b8081029050612cef856130df565b9450612cb6565b94509492505050565b6000612d0a82612f4c565b9150612d1583612f56565b9250612d427fffffffffffffffffffffffffffffffffffffffffffffffffffffffffffffffff8484612d4a565b905092915050565b600082612d5a5760019050612e16565b81612d685760009050612e16565b8160018114612d7e5760028114612d8857612db7565b6001915050612e16565b60ff841115612d9a57612d99613052565b5b8360020a915084821115612db157612db0613052565b5b50612e16565b5060208310610133831016604e8410600b8410161715612dec5782820a905083811115612de757612de6613052565b5b612e16565b612df98484846001612cac565b92509050818404811115612e1057612e0f613052565b5b81810290505b9392505050565b6000612e2882612f4c565b9150612e3383612f4c565b9250817fffffffffffffffffffffffffffffffffffffffffffffffffffffffffffffffff0483118215151615612e6c57612e6b613052565b5b828202905092915050565b6000612e8282612f4c565b9150612e8d83612f4c565b925082821015612ea057612e9f613052565b5b828203905092915050565b6000612eb682612f56565b9150612ec183612f56565b925082821015612ed457612ed3613052565b5b828203905092915050565b6000612eea82612f2c565b9050919050565b6000612efc82612f2c565b9050919050565b60008115159050919050565b6000819050612f1d82613208565b919050565b6000819050919050565b600073ffffffffffffffffffffffffffffffffffffffff82169050919050565b6000819050919050565b600060ff82169050919050565b600069ffffffffffffffffffff82169050919050565b6000612f8482612fe5565b9050919050565b6000612f9682612f9d565b9050919050565b6000612fa882612f2c565b9050919050565b6000612fba82612fc1565b9050919050565b6000612fcc82612f2c565b9050919050565b6000612fde82612f0f565b9050919050565b6000612ff082612ff7565b9050919050565b600061300282612f2c565b9050919050565b600061301482612f4c565b91507fffffffffffffffffffffffffffffffffffffffffffffffffffffffffffffffff82141561304757613046613052565b5b600182019050919050565b7f4e487b7100000000000000000000000000000000000000000000000000000000600052601160045260246000fd5b7f4e487b7100000000000000000000000000000000000000000000000000000000600052601260045260246000fd5b7f4e487b7100000000000000000000000000000000000000000000000000000000600052602160045260246000fd5b60008160011c9050919050565b7f45544820213d20616d6f756e7400000000000000000000000000000000000000600082015250565b7f41677265656d656e74206e6f7420736574746c65642079657400000000000000600082015250565b7f4f776e61626c653a206e6577206f776e657220697320746865207a65726f206160008201527f6464726573730000000000000000000000000000000000000000000000000000602082015250565b7f4f776e61626c653a2063616c6c6572206973206e6f7420746865206f776e6572600082015250565b7f4e6f7420656e6f75676820636f6c6c61746572616c0000000000000000000000600082015250565b7f5265656e7472616e637947756172643a207265656e7472616e742063616c6c00600082015250565b60048110613219576132186130b0565b5b50565b61322581612edf565b811461323057600080fd5b50565b61323c81612f03565b811461324757600080fd5b50565b61325381612f22565b811461325e57600080fd5b50565b61326a81612f4c565b811461327557600080fd5b50565b61328181612f56565b811461328c57600080fd5b50565b61329881612f63565b81146132a357600080fd5b5056fea264697066735822122094fef94eb33ca6c74658455cdb29859320fd697a379b04f46c3e12b48cc04f6964736f6c63430008040033",
  "devdoc": {
    "kind": "dev",
    "methods": {
      "owner()": {
        "details": "Returns the address of the current owner."
      },
      "renounceOwnership()": {
        "details": "Leaves the contract without owner. It will not be possible to call `onlyOwner` functions anymore. Can only be called by the current owner. NOTE: Renouncing ownership will leave the contract without an owner, thereby removing any functionality that is only available to the owner."
      },
      "transferOwnership(address)": {
        "details": "Transfers ownership of the contract to a new account (`newOwner`). Can only be called by the current owner."
      }
    },
    "version": 1
  },
  "userdoc": {
    "kind": "user",
    "methods": {},
    "version": 1
  },
  "storageLayout": {
    "storage": [
      {
        "astId": 311,
        "contract": "contracts/Exchange.sol:Exchange",
        "label": "_status",
        "offset": 0,
        "slot": "0",
        "type": "t_uint256"
      },
      {
        "astId": 111,
        "contract": "contracts/Exchange.sol:Exchange",
        "label": "_owner",
        "offset": 0,
        "slot": "1",
        "type": "t_address"
      },
      {
        "astId": 662,
        "contract": "contracts/Exchange.sol:Exchange",
        "label": "s_idToAgreement",
        "offset": 0,
        "slot": "2",
        "type": "t_mapping(t_uint256,t_struct(Agreement)639_storage)"
      },
      {
        "astId": 667,
        "contract": "contracts/Exchange.sol:Exchange",
        "label": "s_accountToIDs",
        "offset": 0,
        "slot": "3",
        "type": "t_mapping(t_address,t_array(t_uint256)dyn_storage)"
      },
      {
        "astId": 669,
        "contract": "contracts/Exchange.sol:Exchange",
        "label": "s_numIDs",
        "offset": 0,
        "slot": "4",
        "type": "t_uint256"
      },
      {
        "astId": 672,
        "contract": "contracts/Exchange.sol:Exchange",
        "label": "s_lenderToken",
        "offset": 0,
        "slot": "5",
        "type": "t_contract(IToken)1946"
      },
      {
        "astId": 675,
        "contract": "contracts/Exchange.sol:Exchange",
        "label": "s_priceFeed",
        "offset": 0,
        "slot": "6",
        "type": "t_contract(AggregatorV3Interface)84"
      }
    ],
    "types": {
      "t_address": {
        "encoding": "inplace",
        "label": "address",
        "numberOfBytes": "20"
      },
      "t_address_payable": {
        "encoding": "inplace",
        "label": "address payable",
        "numberOfBytes": "20"
      },
      "t_array(t_uint256)dyn_storage": {
        "base": "t_uint256",
        "encoding": "dynamic_array",
        "label": "uint256[]",
        "numberOfBytes": "32"
      },
      "t_contract(AggregatorV3Interface)84": {
        "encoding": "inplace",
        "label": "contract AggregatorV3Interface",
        "numberOfBytes": "20"
      },
      "t_contract(IToken)1946": {
        "encoding": "inplace",
        "label": "contract IToken",
        "numberOfBytes": "20"
      },
      "t_enum(Status)617": {
        "encoding": "inplace",
        "label": "enum Status",
        "numberOfBytes": "1"
      },
      "t_mapping(t_address,t_array(t_uint256)dyn_storage)": {
        "encoding": "mapping",
        "key": "t_address",
        "label": "mapping(address => uint256[])",
        "numberOfBytes": "32",
        "value": "t_array(t_uint256)dyn_storage"
      },
      "t_mapping(t_uint256,t_struct(Agreement)639_storage)": {
        "encoding": "mapping",
        "key": "t_uint256",
        "label": "mapping(uint256 => struct Agreement)",
        "numberOfBytes": "32",
        "value": "t_struct(Agreement)639_storage"
      },
      "t_struct(Agreement)639_storage": {
        "encoding": "inplace",
        "label": "struct Agreement",
        "members": [
          {
            "astId": 619,
            "contract": "contracts/Exchange.sol:Exchange",
            "label": "deposit",
            "offset": 0,
            "slot": "0",
            "type": "t_uint256"
          },
          {
            "astId": 621,
            "contract": "contracts/Exchange.sol:Exchange",
            "label": "collateral",
            "offset": 0,
            "slot": "1",
            "type": "t_uint256"
          },
          {
            "astId": 623,
            "contract": "contracts/Exchange.sol:Exchange",
            "label": "repaidAmt",
            "offset": 0,
            "slot": "2",
            "type": "t_uint256"
          },
          {
            "astId": 625,
            "contract": "contracts/Exchange.sol:Exchange",
            "label": "futureValue",
            "offset": 0,
            "slot": "3",
            "type": "t_uint256"
          },
          {
            "astId": 627,
            "contract": "contracts/Exchange.sol:Exchange",
            "label": "start",
            "offset": 0,
            "slot": "4",
            "type": "t_uint256"
          },
          {
            "astId": 629,
            "contract": "contracts/Exchange.sol:Exchange",
            "label": "duration",
            "offset": 0,
            "slot": "5",
            "type": "t_uint256"
          },
          {
            "astId": 631,
            "contract": "contracts/Exchange.sol:Exchange",
            "label": "rate",
            "offset": 0,
            "slot": "6",
            "type": "t_uint256"
          },
          {
            "astId": 634,
            "contract": "contracts/Exchange.sol:Exchange",
            "label": "status",
            "offset": 0,
            "slot": "7",
            "type": "t_enum(Status)617"
          },
          {
            "astId": 636,
            "contract": "contracts/Exchange.sol:Exchange",
            "label": "lender",
            "offset": 1,
            "slot": "7",
            "type": "t_address_payable"
          },
          {
            "astId": 638,
            "contract": "contracts/Exchange.sol:Exchange",
            "label": "borrower",
            "offset": 0,
            "slot": "8",
            "type": "t_address_payable"
          }
        ],
        "numberOfBytes": "288"
      },
      "t_uint256": {
        "encoding": "inplace",
        "label": "uint256",
        "numberOfBytes": "32"
      }
    }
  }
}