{
  "address": "0x2279B7A0a67DB372996a5FaB50D91eAA73d2eBe6",
  "abi": [
    {
      "inputs": [],
      "name": "NeedsMoreThanZero",
      "type": "error"
    },
    {
      "inputs": [],
      "name": "NeedsToBeActive",
      "type": "error"
    },
    {
      "inputs": [],
      "name": "NeedsToBeBorrower",
      "type": "error"
    },
    {
      "inputs": [],
      "name": "NeedsToBeLender",
      "type": "error"
    },
    {
      "inputs": [],
      "name": "NeedsToBeRepaidOrPending",
      "type": "error"
    },
    {
      "inputs": [],
      "name": "OnlySimulatedBackend",
      "type": "error"
    },
    {
      "inputs": [],
      "name": "TransferFailed",
      "type": "error"
    },
    {
      "anonymous": false,
      "inputs": [
        {
          "indexed": true,
          "internalType": "address",
          "name": "borrower",
          "type": "address"
        },
        {
          "indexed": true,
          "internalType": "uint256",
          "name": "id",
          "type": "uint256"
        },
        {
          "indexed": true,
          "internalType": "uint256",
          "name": "amount",
          "type": "uint256"
        }
      ],
      "name": "Activate",
      "type": "event"
    },
    {
      "anonymous": false,
      "inputs": [
        {
          "indexed": true,
          "internalType": "address",
          "name": "borrower",
          "type": "address"
        },
        {
          "indexed": true,
          "internalType": "uint256",
          "name": "id",
          "type": "uint256"
        },
        {
          "indexed": true,
          "internalType": "uint256",
          "name": "amount",
          "type": "uint256"
        }
      ],
      "name": "AddCollateral",
      "type": "event"
    },
    {
      "anonymous": false,
      "inputs": [
        {
          "indexed": true,
          "internalType": "address",
          "name": "lender",
          "type": "address"
        },
        {
          "indexed": true,
          "internalType": "address",
          "name": "borrower",
          "type": "address"
        },
        {
          "indexed": true,
          "internalType": "uint256",
          "name": "id",
          "type": "uint256"
        }
      ],
      "name": "Closed",
      "type": "event"
    },
    {
      "anonymous": false,
      "inputs": [
        {
          "indexed": true,
          "internalType": "address",
          "name": "borrower",
          "type": "address"
        },
        {
          "indexed": false,
          "internalType": "uint256",
          "name": "remainingValue",
          "type": "uint256"
        }
      ],
      "name": "Liquidate",
      "type": "event"
    },
    {
      "anonymous": false,
      "inputs": [
        {
          "indexed": true,
          "internalType": "address",
          "name": "previousOwner",
          "type": "address"
        },
        {
          "indexed": true,
          "internalType": "address",
          "name": "newOwner",
          "type": "address"
        }
      ],
      "name": "OwnershipTransferred",
      "type": "event"
    },
    {
      "anonymous": false,
      "inputs": [
        {
          "indexed": false,
          "internalType": "address",
          "name": "account",
          "type": "address"
        }
      ],
      "name": "Paused",
      "type": "event"
    },
    {
      "anonymous": false,
      "inputs": [
        {
          "indexed": true,
          "internalType": "address",
          "name": "lender",
          "type": "address"
        },
        {
          "indexed": true,
          "internalType": "uint256",
          "name": "id",
          "type": "uint256"
        },
        {
          "indexed": true,
          "internalType": "uint256",
          "name": "amount",
          "type": "uint256"
        }
      ],
      "name": "Propose",
      "type": "event"
    },
    {
      "anonymous": false,
      "inputs": [
        {
          "indexed": false,
          "internalType": "address",
          "name": "sender",
          "type": "address"
        },
        {
          "indexed": false,
          "internalType": "uint256",
          "name": "amount",
          "type": "uint256"
        }
      ],
      "name": "Received",
      "type": "event"
    },
    {
      "anonymous": false,
      "inputs": [
        {
          "indexed": true,
          "internalType": "address",
          "name": "lender",
          "type": "address"
        },
        {
          "indexed": true,
          "internalType": "uint256",
          "name": "id",
          "type": "uint256"
        },
        {
          "indexed": true,
          "internalType": "uint256",
          "name": "amount",
          "type": "uint256"
        }
      ],
      "name": "Repaid",
      "type": "event"
    },
    {
      "anonymous": false,
      "inputs": [
        {
          "indexed": true,
          "internalType": "address",
          "name": "borrower",
          "type": "address"
        },
        {
          "indexed": true,
          "internalType": "uint256",
          "name": "id",
          "type": "uint256"
        },
        {
          "indexed": true,
          "internalType": "uint256",
          "name": "amount",
          "type": "uint256"
        }
      ],
      "name": "Repay",
      "type": "event"
    },
    {
      "anonymous": false,
      "inputs": [
        {
          "indexed": false,
          "internalType": "address",
          "name": "account",
          "type": "address"
        }
      ],
      "name": "Unpaused",
      "type": "event"
    },
    {
      "anonymous": false,
      "inputs": [
        {
          "indexed": true,
          "internalType": "address",
          "name": "borrower",
          "type": "address"
        },
        {
          "indexed": true,
          "internalType": "uint256",
          "name": "id",
          "type": "uint256"
        },
        {
          "indexed": true,
          "internalType": "uint256",
          "name": "amount",
          "type": "uint256"
        }
      ],
      "name": "WithdrawCollateral",
      "type": "event"
    },
    {
      "inputs": [],
      "name": "LIQUIDATION_THRESHOLD",
      "outputs": [
        {
          "internalType": "uint256",
          "name": "",
          "type": "uint256"
        }
      ],
      "stateMutability": "view",
      "type": "function"
    },
    {
      "inputs": [],
      "name": "POLL_FEE",
      "outputs": [
        {
          "internalType": "uint24",
          "name": "",
          "type": "uint24"
        }
      ],
      "stateMutability": "view",
      "type": "function"
    },
    {
      "inputs": [
        {
          "internalType": "uint256",
          "name": "id",
          "type": "uint256"
        },
        {
          "internalType": "uint256",
          "name": "amount",
          "type": "uint256"
        }
      ],
      "name": "activate",
      "outputs": [],
      "stateMutability": "payable",
      "type": "function"
    },
    {
      "inputs": [
        {
          "internalType": "uint256",
          "name": "id",
          "type": "uint256"
        },
        {
          "internalType": "uint256",
          "name": "amount",
          "type": "uint256"
        }
      ],
      "name": "addCollateral",
      "outputs": [],
      "stateMutability": "payable",
      "type": "function"
    },
    {
      "inputs": [
        {
          "internalType": "bytes",
          "name": "",
          "type": "bytes"
        }
      ],
      "name": "checkUpkeep",
      "outputs": [
        {
          "internalType": "bool",
          "name": "upkeepNeeded",
          "type": "bool"
        },
        {
          "internalType": "bytes",
          "name": "performData",
          "type": "bytes"
        }
      ],
      "stateMutability": "view",
      "type": "function"
    },
    {
      "inputs": [
        {
          "internalType": "uint256",
          "name": "id",
          "type": "uint256"
        }
      ],
      "name": "close",
      "outputs": [],
      "stateMutability": "nonpayable",
      "type": "function"
    },
    {
      "inputs": [
        {
          "internalType": "uint256",
          "name": "amount",
          "type": "uint256"
        }
      ],
      "name": "getEthValueFromToken",
      "outputs": [
        {
          "internalType": "uint256",
          "name": "",
          "type": "uint256"
        }
      ],
      "stateMutability": "view",
      "type": "function"
    },
    {
      "inputs": [],
      "name": "getLiquidatableAgreements",
      "outputs": [
        {
          "internalType": "uint256[]",
          "name": "",
          "type": "uint256[]"
        }
      ],
      "stateMutability": "view",
      "type": "function"
    },
    {
      "inputs": [
        {
          "internalType": "uint256",
          "name": "id",
          "type": "uint256"
        }
      ],
      "name": "getMinReqCollateral",
      "outputs": [
        {
          "internalType": "uint256",
          "name": "",
          "type": "uint256"
        }
      ],
      "stateMutability": "view",
      "type": "function"
    },
    {
      "inputs": [
        {
          "internalType": "uint256",
          "name": "id",
          "type": "uint256"
        }
      ],
      "name": "isLiquidationRequired",
      "outputs": [
        {
          "internalType": "bool",
          "name": "",
          "type": "bool"
        }
      ],
      "stateMutability": "view",
      "type": "function"
    },
    {
      "inputs": [
        {
          "internalType": "uint256[]",
          "name": "idsToLiquidate",
          "type": "uint256[]"
        }
      ],
      "name": "liquidate",
      "outputs": [],
      "stateMutability": "nonpayable",
      "type": "function"
    },
    {
      "inputs": [
        {
          "internalType": "address",
          "name": "account",
          "type": "address"
        },
        {
          "internalType": "uint256",
          "name": "amount",
          "type": "uint256"
        }
      ],
      "name": "mint",
      "outputs": [],
      "stateMutability": "nonpayable",
      "type": "function"
    },
    {
      "inputs": [],
      "name": "owner",
      "outputs": [
        {
          "internalType": "address",
          "name": "",
          "type": "address"
        }
      ],
      "stateMutability": "view",
      "type": "function"
    },
    {
      "inputs": [],
      "name": "paused",
      "outputs": [
        {
          "internalType": "bool",
          "name": "",
          "type": "bool"
        }
      ],
      "stateMutability": "view",
      "type": "function"
    },
    {
      "inputs": [
        {
          "internalType": "bytes",
          "name": "performData",
          "type": "bytes"
        }
      ],
      "name": "performUpkeep",
      "outputs": [],
      "stateMutability": "nonpayable",
      "type": "function"
    },
    {
      "inputs": [
        {
          "internalType": "uint256",
          "name": "amount",
          "type": "uint256"
        },
        {
          "internalType": "uint256",
          "name": "duration",
          "type": "uint256"
        },
        {
          "internalType": "uint256",
          "name": "rate",
          "type": "uint256"
        }
      ],
      "name": "propose",
      "outputs": [
        {
          "internalType": "uint256",
          "name": "id",
          "type": "uint256"
        }
      ],
      "stateMutability": "nonpayable",
      "type": "function"
    },
    {
      "inputs": [],
      "name": "renounceOwnership",
      "outputs": [],
      "stateMutability": "nonpayable",
      "type": "function"
    },
    {
      "inputs": [
        {
          "internalType": "uint256",
          "name": "id",
          "type": "uint256"
        },
        {
          "internalType": "uint256",
          "name": "amount",
          "type": "uint256"
        }
      ],
      "name": "repay",
      "outputs": [],
      "stateMutability": "nonpayable",
      "type": "function"
    },
    {
      "inputs": [
        {
          "internalType": "address",
          "name": "",
          "type": "address"
        },
        {
          "internalType": "uint256",
          "name": "",
          "type": "uint256"
        }
      ],
      "name": "s_accountToIDs",
      "outputs": [
        {
          "internalType": "uint256",
          "name": "",
          "type": "uint256"
        }
      ],
      "stateMutability": "view",
      "type": "function"
    },
    {
      "inputs": [
        {
          "internalType": "uint256",
          "name": "",
          "type": "uint256"
        }
      ],
      "name": "s_idToAgreement",
      "outputs": [
        {
          "internalType": "uint256",
          "name": "deposit",
          "type": "uint256"
        },
        {
          "internalType": "uint256",
          "name": "collateral",
          "type": "uint256"
        },
        {
          "internalType": "uint256",
          "name": "repaidAmt",
          "type": "uint256"
        },
        {
          "internalType": "uint256",
          "name": "futureValue",
          "type": "uint256"
        },
        {
          "internalType": "uint256",
          "name": "start",
          "type": "uint256"
        },
        {
          "internalType": "uint256",
          "name": "duration",
          "type": "uint256"
        },
        {
          "internalType": "uint256",
          "name": "rate",
          "type": "uint256"
        },
        {
          "internalType": "enum Status",
          "name": "status",
          "type": "uint8"
        },
        {
          "internalType": "address payable",
          "name": "lender",
          "type": "address"
        },
        {
          "internalType": "address payable",
          "name": "borrower",
          "type": "address"
        }
      ],
      "stateMutability": "view",
      "type": "function"
    },
    {
      "inputs": [],
      "name": "s_keeperRegistryAddress",
      "outputs": [
        {
          "internalType": "address",
          "name": "",
          "type": "address"
        }
      ],
      "stateMutability": "view",
      "type": "function"
    },
    {
      "inputs": [],
      "name": "s_lenderToken",
      "outputs": [
        {
          "internalType": "contract IToken",
          "name": "",
          "type": "address"
        }
      ],
      "stateMutability": "view",
      "type": "function"
    },
    {
      "inputs": [],
      "name": "s_numIDs",
      "outputs": [
        {
          "internalType": "uint256",
          "name": "",
          "type": "uint256"
        }
      ],
      "stateMutability": "view",
      "type": "function"
    },
    {
      "inputs": [],
      "name": "s_priceFeed",
      "outputs": [
        {
          "internalType": "contract AggregatorV3Interface",
          "name": "",
          "type": "address"
        }
      ],
      "stateMutability": "view",
      "type": "function"
    },
    {
      "inputs": [],
      "name": "s_swapRouter",
      "outputs": [
        {
          "internalType": "contract IUniswapRouter",
          "name": "",
          "type": "address"
        }
      ],
      "stateMutability": "view",
      "type": "function"
    },
    {
      "inputs": [],
      "name": "s_wethToken",
      "outputs": [
        {
          "internalType": "contract IWETH",
          "name": "",
          "type": "address"
        }
      ],
      "stateMutability": "view",
      "type": "function"
    },
    {
      "inputs": [
        {
          "internalType": "address",
          "name": "keeperRegistryAddress",
          "type": "address"
        }
      ],
      "name": "setKeeperRegistryAddress",
      "outputs": [],
      "stateMutability": "nonpayable",
      "type": "function"
    },
    {
      "inputs": [
        {
          "internalType": "address",
          "name": "token",
          "type": "address"
        },
        {
          "internalType": "address",
          "name": "priceFeed",
          "type": "address"
        }
      ],
      "name": "setLenderToken",
      "outputs": [],
      "stateMutability": "nonpayable",
      "type": "function"
    },
    {
      "inputs": [
        {
          "internalType": "address",
          "name": "swapRouter",
          "type": "address"
        },
        {
          "internalType": "address",
          "name": "wethToken",
          "type": "address"
        }
      ],
      "name": "setSwapRouter",
      "outputs": [],
      "stateMutability": "nonpayable",
      "type": "function"
    },
    {
      "inputs": [
        {
          "internalType": "address",
          "name": "newOwner",
          "type": "address"
        }
      ],
      "name": "transferOwnership",
      "outputs": [],
      "stateMutability": "nonpayable",
      "type": "function"
    },
    {
      "inputs": [
        {
          "internalType": "uint256",
          "name": "id",
          "type": "uint256"
        },
        {
          "internalType": "uint256",
          "name": "amount",
          "type": "uint256"
        }
      ],
      "name": "withdrawCollateral",
      "outputs": [],
      "stateMutability": "nonpayable",
      "type": "function"
    },
    {
      "stateMutability": "payable",
      "type": "receive"
    }
  ],
  "transactionHash": "0xf0beebc6aacbc194f4ec72dc881bdafb3a417b93c47a59ccc9fb8ad69c37a580",
  "args": [],
  "numDeployments": 1,
  "solcInputHash": "5a67e52eb60128eb69c26ed7d1904afb",
  "bytecode": "0x60806040523480156200001157600080fd5b5060016000819055506000600160006101000a81548160ff02191690831515021790555062000055620000496200005b60201b60201c565b6200006360201b60201c565b62000126565b600033905090565b600060018054906101000a900473ffffffffffffffffffffffffffffffffffffffff169050816001806101000a81548173ffffffffffffffffffffffffffffffffffffffff021916908373ffffffffffffffffffffffffffffffffffffffff1602179055508173ffffffffffffffffffffffffffffffffffffffff168173ffffffffffffffffffffffffffffffffffffffff167f8be0079c531659141344cd1fd0a4f28419497f9722a3daafe3b4186f6b6457e060405160405180910390a35050565b61478f80620001366000396000f3fe6080604052600436106101dc5760003560e01c8063715018a611610102578063a32d196811610095578063d8aed14511610064578063d8aed145146106f2578063dc40e2d01461071b578063e05acb5114610744578063f2fde38b1461076f5761021c565b8063a32d196814610643578063a8f35adf1461066e578063d35b0adc1461068a578063d51ac144146106c75761021c565b80638ea8f83c116100d15780638ea8f83c1461058d57806390a8ae9b146105a957806394555114146105d45780639bf9e715146105fd5761021c565b8063715018a6146104f7578063767a7b051461050e578063771b081e146105375780638da5cb5b146105625761021c565b806340376d561161017a5780635177e342116101495780635177e342146104285780635c975abb1461046557806365cad891146104905780636e04ff0d146104b95761021c565b806340376d561461035c57806340c10f19146103995780634585e33b146103c2578063482ae59b146103eb5761021c565b80630ec3b027116101b65780630ec3b027146102b25780631f9ff79d146102dd578063266a1b341461030657806330c71853146103315761021c565b8063030fdffb14610221578063034e30311461025e5780630aebeb4e146102895761021c565b3661021c577f88a5966d370b9919b20f3e2c13ff65706f196a4e32cc2c12bf57088f885258743334604051610212929190613bf6565b60405180910390a1005b600080fd5b34801561022d57600080fd5b50610248600480360381019061024391906136d7565b610798565b6040516102559190613e0f565b60405180910390f35b34801561026a57600080fd5b506102736109cd565b6040516102809190613df4565b60405180910390f35b34801561029557600080fd5b506102b060048036038101906102ab91906136d7565b6109d3565b005b3480156102be57600080fd5b506102c7610f25565b6040516102d49190613c8c565b60405180910390f35b3480156102e957600080fd5b5061030460048036038101906102ff91906135b0565b610f4b565b005b34801561031257600080fd5b5061031b61104d565b6040516103289190613c1f565b60405180910390f35b34801561033d57600080fd5b50610346611170565b6040516103539190613cdd565b60405180910390f35b34801561036857600080fd5b50610383600480360381019061037e9190613765565b611196565b6040516103909190613e0f565b60405180910390f35b3480156103a557600080fd5b506103c060048036038101906103bb91906135ec565b611614565b005b3480156103ce57600080fd5b506103e960048036038101906103e49190613692565b6116a7565b005b3480156103f757600080fd5b50610412600480360381019061040d91906136d7565b611710565b60405161041f9190613c41565b60405180910390f35b34801561043457600080fd5b5061044f600480360381019061044a91906135ec565b611954565b60405161045c9190613e0f565b60405180910390f35b34801561047157600080fd5b5061047a611985565b6040516104879190613c41565b60405180910390f35b34801561049c57600080fd5b506104b760048036038101906104b29190613628565b61199c565b005b3480156104c557600080fd5b506104e060048036038101906104db9190613692565b611bf5565b6040516104ee929190613c5c565b60405180910390f35b34801561050357600080fd5b5061050c611c7e565b005b34801561051a57600080fd5b5061053560048036038101906105309190613729565b611d06565b005b34801561054357600080fd5b5061054c612193565b6040516105599190613b7b565b60405180910390f35b34801561056e57600080fd5b506105776121b9565b6040516105849190613b7b565b60405180910390f35b6105a760048036038101906105a29190613729565b6121e1565b005b3480156105b557600080fd5b506105be6124f8565b6040516105cb9190613e0f565b60405180910390f35b3480156105e057600080fd5b506105fb60048036038101906105f69190613587565b6124fd565b005b34801561060957600080fd5b50610624600480360381019061061f91906136d7565b6125f7565b60405161063a9a99989796959493929190613e2a565b60405180910390f35b34801561064f57600080fd5b50610658612698565b6040516106659190613e0f565b60405180910390f35b61068860048036038101906106839190613729565b61269e565b005b34801561069657600080fd5b506106b160048036038101906106ac91906136d7565b6128e2565b6040516106be9190613e0f565b60405180910390f35b3480156106d357600080fd5b506106dc612abe565b6040516106e99190613ca7565b60405180910390f35b3480156106fe57600080fd5b5061071960048036038101906107149190613729565b612ae4565b005b34801561072757600080fd5b50610742600480360381019061073d91906135b0565b612ed2565b005b34801561075057600080fd5b5061075961300e565b6040516107669190613cc2565b60405180910390f35b34801561077b57600080fd5b5061079660048036038101906107919190613587565b613034565b005b600080600660009054906101000a900473ffffffffffffffffffffffffffffffffffffffff1673ffffffffffffffffffffffffffffffffffffffff1663feaf968c6040518163ffffffff1660e01b815260040160a06040518083038186803b15801561080357600080fd5b505afa158015610817573d6000803e3d6000fd5b505050506040513d601f19601f8201168201806040525081019061083b91906137b4565b5050509150506000600660009054906101000a900473ffffffffffffffffffffffffffffffffffffffff1673ffffffffffffffffffffffffffffffffffffffff1663313ce5676040518163ffffffff1660e01b815260040160206040518083038186803b1580156108ab57600080fd5b505afa1580156108bf573d6000803e3d6000fd5b505050506040513d601f19601f820116820180604052508101906108e3919061382b565b90506000600560009054906101000a900473ffffffffffffffffffffffffffffffffffffffff1673ffffffffffffffffffffffffffffffffffffffff1663313ce5676040518163ffffffff1660e01b815260040160206040518083038186803b15801561094f57600080fd5b505afa158015610963573d6000803e3d6000fd5b505050506040513d601f19601f82011682018060405250810190610987919061382b565b905082818360126109989190613fd3565b6109a2919061423a565b600a6109ae919061408e565b866109b991906141ac565b6109c3919061400a565b9350505050919050565b610bb881565b60026000541415610a19576040517f08c379a0000000000000000000000000000000000000000000000000000000008152600401610a1090613db8565b60405180910390fd5b6002600081905550803373ffffffffffffffffffffffffffffffffffffffff166002600083815260200190815260200160002060070160019054906101000a900473ffffffffffffffffffffffffffffffffffffffff1673ffffffffffffffffffffffffffffffffffffffff1614610abd576040517f3a7d412400000000000000000000000000000000000000000000000000000000815260040160405180910390fd5b8160026003811115610af8577f4e487b7100000000000000000000000000000000000000000000000000000000600052602160045260246000fd5b6002600083815260200190815260200160002060070160009054906101000a900460ff166003811115610b54577f4e487b7100000000000000000000000000000000000000000000000000000000600052602160045260246000fd5b14158015610bf6575060006003811115610b97577f4e487b7100000000000000000000000000000000000000000000000000000000600052602160045260246000fd5b6002600083815260200190815260200160002060070160009054906101000a900460ff166003811115610bf3577f4e487b7100000000000000000000000000000000000000000000000000000000600052602160045260246000fd5b14155b15610c2d576040517ff5086d4c00000000000000000000000000000000000000000000000000000000815260040160405180910390fd5b600060026000858152602001908152602001600020905060008160030154905060006003811115610c87577f4e487b7100000000000000000000000000000000000000000000000000000000600052602160045260246000fd5b8260070160009054906101000a900460ff166003811115610cd1577f4e487b7100000000000000000000000000000000000000000000000000000000600052602160045260246000fd5b14610d115780826002015414610d10577f4e487b7100000000000000000000000000000000000000000000000000000000600052600160045260246000fd5b5b6000600560009054906101000a900473ffffffffffffffffffffffffffffffffffffffff1673ffffffffffffffffffffffffffffffffffffffff1663a9059cbb8460070160019054906101000a900473ffffffffffffffffffffffffffffffffffffffff16846040518363ffffffff1660e01b8152600401610d94929190613b96565b602060405180830381600087803b158015610dae57600080fd5b505af1158015610dc2573d6000803e3d6000fd5b505050506040513d601f19601f82011682018060405250810190610de69190613669565b905080610e1f576040517f90b8ec1800000000000000000000000000000000000000000000000000000000815260040160405180910390fd5b858360080160009054906101000a900473ffffffffffffffffffffffffffffffffffffffff1673ffffffffffffffffffffffffffffffffffffffff168460070160019054906101000a900473ffffffffffffffffffffffffffffffffffffffff1673ffffffffffffffffffffffffffffffffffffffff167f62d095e2c4513ab737ede7cbd30334eccb10424cbc543ebb5c458b5174cddcd560405160405180910390a460038360070160006101000a81548160ff02191690836003811115610f10577f4e487b7100000000000000000000000000000000000000000000000000000000600052602160045260246000fd5b02179055505050505050600160008190555050565b600660009054906101000a900473ffffffffffffffffffffffffffffffffffffffff1681565b610f5361312c565b73ffffffffffffffffffffffffffffffffffffffff16610f716121b9565b73ffffffffffffffffffffffffffffffffffffffff1614610fc7576040517f08c379a0000000000000000000000000000000000000000000000000000000008152600401610fbe90613d78565b60405180910390fd5b81600560006101000a81548173ffffffffffffffffffffffffffffffffffffffff021916908373ffffffffffffffffffffffffffffffffffffffff16021790555080600660006101000a81548173ffffffffffffffffffffffffffffffffffffffff021916908373ffffffffffffffffffffffffffffffffffffffff1602179055505050565b6060600060045467ffffffffffffffff811115611093577f4e487b7100000000000000000000000000000000000000000000000000000000600052604160045260246000fd5b6040519080825280602002602001820160405280156110c15781602001602082028036833780820191505090505b50905060008080600190505b6004548111611159576110df81611710565b915081156111485780846001836110f69190614206565b8151811061112d577f4e487b7100000000000000000000000000000000000000000000000000000000600052603260045260246000fd5b602002602001018181525050828061114490614453565b9350505b8061115290614453565b90506110cd565b506004548214611167578183525b82935050505090565b600860009054906101000a900473ffffffffffffffffffffffffffffffffffffffff1681565b6000600260005414156111de576040517f08c379a00000000000000000000000000000000000000000000000000000000081526004016111d590613db8565b60405180910390fd5b6002600081905550836000811415611222576040517ff45911f000000000000000000000000000000000000000000000000000000000815260040160405180910390fd5b60006103e885856103e86112369190613f7d565b8861124191906141ac565b61124b91906141ac565b611255919061400a565b90506000604051806101400160405280888152602001600081526020016000815260200183815260200160008152602001878152602001868152602001600060038111156112cc577f4e487b7100000000000000000000000000000000000000000000000000000000600052602160045260246000fd5b81526020013373ffffffffffffffffffffffffffffffffffffffff168152602001600073ffffffffffffffffffffffffffffffffffffffff1681525090506000600560009054906101000a900473ffffffffffffffffffffffffffffffffffffffff1673ffffffffffffffffffffffffffffffffffffffff166323b872dd33308b6040518463ffffffff1660e01b815260040161136b93929190613bbf565b602060405180830381600087803b15801561138557600080fd5b505af1158015611399573d6000803e3d6000fd5b505050506040513d601f19601f820116820180604052508101906113bd9190613669565b9050806113f6576040517f90b8ec1800000000000000000000000000000000000000000000000000000000815260040160405180910390fd5b6004600081548092919061140990614453565b919050555060045494508160026000878152602001908152602001600020600082015181600001556020820151816001015560408201518160020155606082015181600301556080820151816004015560a0820151816005015560c0820151816006015560e08201518160070160006101000a81548160ff021916908360038111156114be577f4e487b7100000000000000000000000000000000000000000000000000000000600052602160045260246000fd5b02179055506101008201518160070160016101000a81548173ffffffffffffffffffffffffffffffffffffffff021916908373ffffffffffffffffffffffffffffffffffffffff1602179055506101208201518160080160006101000a81548173ffffffffffffffffffffffffffffffffffffffff021916908373ffffffffffffffffffffffffffffffffffffffff160217905550905050600360003373ffffffffffffffffffffffffffffffffffffffff1673ffffffffffffffffffffffffffffffffffffffff16815260200190815260200160002085908060018154018082558091505060019003906000526020600020016000909190919091505587853373ffffffffffffffffffffffffffffffffffffffff167ffcb5913d5cff8e37667ef76381030e4118bc2091969ecf14726dd959e0e15c0760405160405180910390a45050505060016000819055509392505050565b600560009054906101000a900473ffffffffffffffffffffffffffffffffffffffff1673ffffffffffffffffffffffffffffffffffffffff166340c10f1983836040518363ffffffff1660e01b8152600401611671929190613bf6565b600060405180830381600087803b15801561168b57600080fd5b505af115801561169f573d6000803e3d6000fd5b505050505050565b6116af611985565b156116ef576040517f08c379a00000000000000000000000000000000000000000000000000000000081526004016116e690613d58565b60405180910390fd5b600082828101906117009190613628565b905061170b8161199c565b505050565b6000806002600084815260200190815260200160002060405180610140016040529081600082015481526020016001820154815260200160028201548152602001600382015481526020016004820154815260200160058201548152602001600682015481526020016007820160009054906101000a900460ff1660038111156117c3577f4e487b7100000000000000000000000000000000000000000000000000000000600052602160045260246000fd5b60038111156117fb577f4e487b7100000000000000000000000000000000000000000000000000000000600052602160045260246000fd5b81526020016007820160019054906101000a900473ffffffffffffffffffffffffffffffffffffffff1673ffffffffffffffffffffffffffffffffffffffff1673ffffffffffffffffffffffffffffffffffffffff1681526020016008820160009054906101000a900473ffffffffffffffffffffffffffffffffffffffff1673ffffffffffffffffffffffffffffffffffffffff1673ffffffffffffffffffffffffffffffffffffffff1681525050905060008160800151905060008260a00151905060006301e13380905060008460400151905060008560600151905060006118e5896128e2565b90506000876020015190508181116119085760019850505050505050505061194f565b848661191491906141ac565b87426119209190614206565b11801561192c57508284105b156119425760019850505050505050505061194f565b6000985050505050505050505b919050565b6003602052816000526040600020818154811061197057600080fd5b90600052602060002001600091509150505481565b6000600160009054906101000a900460ff16905090565b6119a4611985565b156119e4576040517f08c379a00000000000000000000000000000000000000000000000000000000081526004016119db90613d58565b60405180910390fd5b600080600090505b8251811015611bf0576000838281518110611a30577f4e487b7100000000000000000000000000000000000000000000000000000000600052603260045260246000fd5b602002602001015190506002600082815260200190815260200160002092506000611a5a82611710565b90508015611bdd57600084600201548560030154611a789190614206565b90506000611a8b30838860010154613134565b905060028660070160006101000a81548160ff02191690836003811115611adb577f4e487b7100000000000000000000000000000000000000000000000000000000600052602160045260246000fd5b021790555080866001016000828254611af49190614206565b925050819055508560080160009054906101000a900473ffffffffffffffffffffffffffffffffffffffff1673ffffffffffffffffffffffffffffffffffffffff167f08813a3631e12129135cc9440d3fea50eec346f1673b20b994b0456d5d46ccb98760010154604051611b699190613e0f565b60405180910390a281848760070160019054906101000a900473ffffffffffffffffffffffffffffffffffffffff1673ffffffffffffffffffffffffffffffffffffffff167f1b8cd61ed43bec7c6bdad3a18ffee613f99c853d16c50678d248d879e1b4343860405160405180910390a450505b505080611be990614453565b90506119ec565b505050565b60006060611c01611985565b15611c41576040517f08c379a0000000000000000000000000000000000000000000000000000000008152600401611c3890613d58565b60405180910390fd5b6000611c4b61104d565b90506000815111925080604051602001611c659190613c1f565b6040516020818303038152906040529150509250929050565b611c8661312c565b73ffffffffffffffffffffffffffffffffffffffff16611ca46121b9565b73ffffffffffffffffffffffffffffffffffffffff1614611cfa576040517f08c379a0000000000000000000000000000000000000000000000000000000008152600401611cf190613d78565b60405180910390fd5b611d046000613351565b565b60026000541415611d4c576040517f08c379a0000000000000000000000000000000000000000000000000000000008152600401611d4390613db8565b60405180910390fd5b6002600081905550813373ffffffffffffffffffffffffffffffffffffffff166002600083815260200190815260200160002060080160009054906101000a900473ffffffffffffffffffffffffffffffffffffffff1673ffffffffffffffffffffffffffffffffffffffff1614611df0576040517fc0e58a0500000000000000000000000000000000000000000000000000000000815260040160405180910390fd5b816000811415611e2c576040517ff45911f000000000000000000000000000000000000000000000000000000000815260040160405180910390fd5b600060026000868152602001908152602001600020905060008160070160009054906101000a900460ff1690506000826001015490506000611e6d886128e2565b905060016003811115611ea9577f4e487b7100000000000000000000000000000000000000000000000000000000600052602160045260246000fd5b836003811115611ee2577f4e487b7100000000000000000000000000000000000000000000000000000000600052602160045260246000fd5b1415611f3a57808783611ef59190614206565b11611f35576040517f08c379a0000000000000000000000000000000000000000000000000000000008152600401611f2c90613d98565b60405180910390fd5b612068565b60026003811115611f74577f4e487b7100000000000000000000000000000000000000000000000000000000600052602160045260246000fd5b836003811115611fad577f4e487b7100000000000000000000000000000000000000000000000000000000600052602160045260246000fd5b14806120285750600380811115611fed577f4e487b7100000000000000000000000000000000000000000000000000000000600052602160045260246000fd5b836003811115612026577f4e487b7100000000000000000000000000000000000000000000000000000000600052602160045260246000fd5b145b612067576040517f08c379a000000000000000000000000000000000000000000000000000000000815260040161205e90613d18565b60405180910390fd5b5b8684600101600082825461207c9190614206565b9250508190555060008460080160009054906101000a900473ffffffffffffffffffffffffffffffffffffffff1673ffffffffffffffffffffffffffffffffffffffff166108fc899081150290604051600060405180830381858888f19350505050905080612117576040517f90b8ec1800000000000000000000000000000000000000000000000000000000815260040160405180910390fd5b87898660080160009054906101000a900473ffffffffffffffffffffffffffffffffffffffff1673ffffffffffffffffffffffffffffffffffffffff167f627a692d5a03ab34732c0d2aa319f3ecdebdc4528f383eabcb25441dc0a70cfb60405160405180910390a45050505050505060016000819055505050565b600960009054906101000a900473ffffffffffffffffffffffffffffffffffffffff1681565b600060018054906101000a900473ffffffffffffffffffffffffffffffffffffffff16905090565b60026000541415612227576040517f08c379a000000000000000000000000000000000000000000000000000000000815260040161221e90613db8565b60405180910390fd5b600260008190555034600081141561226b576040517ff45911f000000000000000000000000000000000000000000000000000000000815260040160405180910390fd5b8134146122ad576040517f08c379a00000000000000000000000000000000000000000000000000000000081526004016122a490613cf8565b60405180910390fd5b6122b6836128e2565b82116122f7576040517f08c379a00000000000000000000000000000000000000000000000000000000081526004016122ee90613d98565b60405180910390fd5b6000600260008581526020019081526020016000209050428160040181905550338160080160006101000a81548173ffffffffffffffffffffffffffffffffffffffff021916908373ffffffffffffffffffffffffffffffffffffffff16021790555060018160070160006101000a81548160ff021916908360038111156123a8577f4e487b7100000000000000000000000000000000000000000000000000000000600052602160045260246000fd5b02179055508281600101819055506000600560009054906101000a900473ffffffffffffffffffffffffffffffffffffffff1673ffffffffffffffffffffffffffffffffffffffff1663a9059cbb3384600001546040518363ffffffff1660e01b8152600401612419929190613bf6565b602060405180830381600087803b15801561243357600080fd5b505af1158015612447573d6000803e3d6000fd5b505050506040513d601f19601f8201168201806040525081019061246b9190613669565b9050806124a4576040517f90b8ec1800000000000000000000000000000000000000000000000000000000815260040160405180910390fd5b83853373ffffffffffffffffffffffffffffffffffffffff167fbd91f62af1740ef6fd0b373ce523c11845b4c4699f80233ee0092bfd0a222ccf60405160405180910390a450505060016000819055505050565b605081565b61250561312c565b73ffffffffffffffffffffffffffffffffffffffff166125236121b9565b73ffffffffffffffffffffffffffffffffffffffff1614612579576040517f08c379a000000000000000000000000000000000000000000000000000000000815260040161257090613d78565b60405180910390fd5b600073ffffffffffffffffffffffffffffffffffffffff168173ffffffffffffffffffffffffffffffffffffffff1614156125b357600080fd5b80600960006101000a81548173ffffffffffffffffffffffffffffffffffffffff021916908373ffffffffffffffffffffffffffffffffffffffff16021790555050565b60026020528060005260406000206000915090508060000154908060010154908060020154908060030154908060040154908060050154908060060154908060070160009054906101000a900460ff16908060070160019054906101000a900473ffffffffffffffffffffffffffffffffffffffff16908060080160009054906101000a900473ffffffffffffffffffffffffffffffffffffffff1690508a565b60045481565b600260005414156126e4576040517f08c379a00000000000000000000000000000000000000000000000000000000081526004016126db90613db8565b60405180910390fd5b60026000819055508160016003811115612727577f4e487b7100000000000000000000000000000000000000000000000000000000600052602160045260246000fd5b6002600083815260200190815260200160002060070160009054906101000a900460ff166003811115612783577f4e487b7100000000000000000000000000000000000000000000000000000000600052602160045260246000fd5b146127ba576040517f9206086a00000000000000000000000000000000000000000000000000000000815260040160405180910390fd5b8160008114156127f6576040517ff45911f000000000000000000000000000000000000000000000000000000000815260040160405180910390fd5b823414612838576040517f08c379a000000000000000000000000000000000000000000000000000000000815260040161282f90613cf8565b60405180910390fd5b6000600260008681526020019081526020016000209050838160010160008282546128639190613f7d565b9250508190555083858260080160009054906101000a900473ffffffffffffffffffffffffffffffffffffffff1673ffffffffffffffffffffffffffffffffffffffff167fe3f4fa74d049cf7d64965afd6ce83c826cd313cec824ecfb9aacf36886090b4960405160405180910390a450505060016000819055505050565b6000806002600084815260200190815260200160002060405180610140016040529081600082015481526020016001820154815260200160028201548152602001600382015481526020016004820154815260200160058201548152602001600682015481526020016007820160009054906101000a900460ff166003811115612995577f4e487b7100000000000000000000000000000000000000000000000000000000600052602160045260246000fd5b60038111156129cd577f4e487b7100000000000000000000000000000000000000000000000000000000600052602160045260246000fd5b81526020016007820160019054906101000a900473ffffffffffffffffffffffffffffffffffffffff1673ffffffffffffffffffffffffffffffffffffffff1673ffffffffffffffffffffffffffffffffffffffff1681526020016008820160009054906101000a900473ffffffffffffffffffffffffffffffffffffffff1673ffffffffffffffffffffffffffffffffffffffff1673ffffffffffffffffffffffffffffffffffffffff1681525050905060006064605060c8612a919190614206565b612a9e8460600151610798565b612aa891906141ac565b612ab2919061400a565b90508092505050919050565b600560009054906101000a900473ffffffffffffffffffffffffffffffffffffffff1681565b60026000541415612b2a576040517f08c379a0000000000000000000000000000000000000000000000000000000008152600401612b2190613db8565b60405180910390fd5b60026000819055508160016003811115612b6d577f4e487b7100000000000000000000000000000000000000000000000000000000600052602160045260246000fd5b6002600083815260200190815260200160002060070160009054906101000a900460ff166003811115612bc9577f4e487b7100000000000000000000000000000000000000000000000000000000600052602160045260246000fd5b14612c00576040517f9206086a00000000000000000000000000000000000000000000000000000000815260040160405180910390fd5b816000811415612c3c576040517ff45911f000000000000000000000000000000000000000000000000000000000815260040160405180910390fd5b6000600260008681526020019081526020016000209050600081600301549050600082600201549050818682612c729190613f7d565b1115612c87578082612c849190614206565b95505b85836002016000828254612c9b9190613f7d565b925050819055508183600201541415612d6b5760028360070160006101000a81548160ff02191690836003811115612cfc577f4e487b7100000000000000000000000000000000000000000000000000000000600052602160045260246000fd5b021790555081878460070160019054906101000a900473ffffffffffffffffffffffffffffffffffffffff1673ffffffffffffffffffffffffffffffffffffffff167f1b8cd61ed43bec7c6bdad3a18ffee613f99c853d16c50678d248d879e1b4343860405160405180910390a45b6000600560009054906101000a900473ffffffffffffffffffffffffffffffffffffffff1673ffffffffffffffffffffffffffffffffffffffff166323b872dd33308a6040518463ffffffff1660e01b8152600401612dcc93929190613bbf565b602060405180830381600087803b158015612de657600080fd5b505af1158015612dfa573d6000803e3d6000fd5b505050506040513d601f19601f82011682018060405250810190612e1e9190613669565b905080612e57576040517f90b8ec1800000000000000000000000000000000000000000000000000000000815260040160405180910390fd5b86888560080160009054906101000a900473ffffffffffffffffffffffffffffffffffffffff1673ffffffffffffffffffffffffffffffffffffffff167f77c6871227e5d2dec8dadd5354f78453203e22e669cd0ec4c19d9a8c5edb31d060405160405180910390a450505050505060016000819055505050565b612eda61312c565b73ffffffffffffffffffffffffffffffffffffffff16612ef86121b9565b73ffffffffffffffffffffffffffffffffffffffff1614612f4e576040517f08c379a0000000000000000000000000000000000000000000000000000000008152600401612f4590613d78565b60405180910390fd5b600073ffffffffffffffffffffffffffffffffffffffff168273ffffffffffffffffffffffffffffffffffffffff161415612f8857600080fd5b81600760006101000a81548173ffffffffffffffffffffffffffffffffffffffff021916908373ffffffffffffffffffffffffffffffffffffffff16021790555080600860006101000a81548173ffffffffffffffffffffffffffffffffffffffff021916908373ffffffffffffffffffffffffffffffffffffffff1602179055505050565b600760009054906101000a900473ffffffffffffffffffffffffffffffffffffffff1681565b61303c61312c565b73ffffffffffffffffffffffffffffffffffffffff1661305a6121b9565b73ffffffffffffffffffffffffffffffffffffffff16146130b0576040517f08c379a00000000000000000000000000000000000000000000000000000000081526004016130a790613d78565b60405180910390fd5b600073ffffffffffffffffffffffffffffffffffffffff168173ffffffffffffffffffffffffffffffffffffffff161415613120576040517f08c379a000000000000000000000000000000000000000000000000000000000815260040161311790613d38565b60405180910390fd5b61312981613351565b50565b600033905090565b600080604051806101000160405280600860009054906101000a900473ffffffffffffffffffffffffffffffffffffffff1673ffffffffffffffffffffffffffffffffffffffff168152602001600560009054906101000a900473ffffffffffffffffffffffffffffffffffffffff1673ffffffffffffffffffffffffffffffffffffffff168152602001610bb862ffffff1681526020018673ffffffffffffffffffffffffffffffffffffffff168152602001428152602001858152602001848152602001600073ffffffffffffffffffffffffffffffffffffffff168152509050600760009054906101000a900473ffffffffffffffffffffffffffffffffffffffff1673ffffffffffffffffffffffffffffffffffffffff1663db3e219884836040518363ffffffff1660e01b81526004016132739190613dd8565b6020604051808303818588803b15801561328c57600080fd5b505af11580156132a0573d6000803e3d6000fd5b50505050506040513d601f19601f820116820180604052508101906132c59190613700565b9150600760009054906101000a900473ffffffffffffffffffffffffffffffffffffffff1673ffffffffffffffffffffffffffffffffffffffff166312210e8a6040518163ffffffff1660e01b8152600401600060405180830381600087803b15801561333157600080fd5b505af1158015613345573d6000803e3d6000fd5b50505050509392505050565b600060018054906101000a900473ffffffffffffffffffffffffffffffffffffffff169050816001806101000a81548173ffffffffffffffffffffffffffffffffffffffff021916908373ffffffffffffffffffffffffffffffffffffffff1602179055508173ffffffffffffffffffffffffffffffffffffffff168173ffffffffffffffffffffffffffffffffffffffff167f8be0079c531659141344cd1fd0a4f28419497f9722a3daafe3b4186f6b6457e060405160405180910390a35050565b600061342761342284613eeb565b613ec6565b9050808382526020820190508285602086028201111561344657600080fd5b60005b85811015613476578161345c8882613533565b845260208401935060208301925050600181019050613449565b5050509392505050565b60008135905061348f816146cf565b92915050565b600082601f8301126134a657600080fd5b81356134b6848260208601613414565b91505092915050565b6000815190506134ce816146e6565b92915050565b60008083601f8401126134e657600080fd5b8235905067ffffffffffffffff8111156134ff57600080fd5b60208301915083600182028301111561351757600080fd5b9250929050565b60008151905061352d816146fd565b92915050565b60008135905061354281614714565b92915050565b60008151905061355781614714565b92915050565b60008151905061356c81614742565b92915050565b6000815190506135818161472b565b92915050565b60006020828403121561359957600080fd5b60006135a784828501613480565b91505092915050565b600080604083850312156135c357600080fd5b60006135d185828601613480565b92505060206135e285828601613480565b9150509250929050565b600080604083850312156135ff57600080fd5b600061360d85828601613480565b925050602061361e85828601613533565b9150509250929050565b60006020828403121561363a57600080fd5b600082013567ffffffffffffffff81111561365457600080fd5b61366084828501613495565b91505092915050565b60006020828403121561367b57600080fd5b6000613689848285016134bf565b91505092915050565b600080602083850312156136a557600080fd5b600083013567ffffffffffffffff8111156136bf57600080fd5b6136cb858286016134d4565b92509250509250929050565b6000602082840312156136e957600080fd5b60006136f784828501613533565b91505092915050565b60006020828403121561371257600080fd5b600061372084828501613548565b91505092915050565b6000806040838503121561373c57600080fd5b600061374a85828601613533565b925050602061375b85828601613533565b9150509250929050565b60008060006060848603121561377a57600080fd5b600061378886828701613533565b935050602061379986828701613533565b92505060406137aa86828701613533565b9150509250925092565b600080600080600060a086880312156137cc57600080fd5b60006137da8882890161355d565b95505060206137eb8882890161351e565b94505060406137fc88828901613548565b935050606061380d88828901613548565b925050608061381e8882890161355d565b9150509295509295909350565b60006020828403121561383d57600080fd5b600061384b84828501613572565b91505092915050565b60006138608383613b5d565b60208301905092915050565b61387581614317565b82525050565b61388481614280565b82525050565b6138938161426e565b82525050565b6138a28161426e565b82525050565b60006138b382613f27565b6138bd8185613f4a565b93506138c883613f17565b8060005b838110156138f95781516138e08882613854565b97506138eb83613f3d565b9250506001810190506138cc565b5085935050505092915050565b61390f81614292565b82525050565b600061392082613f32565b61392a8185613f5b565b935061393a8185602086016143ef565b61394381614558565b840191505092915050565b61395781614329565b82525050565b6139668161434d565b82525050565b61397581614371565b82525050565b61398481614395565b82525050565b613993816143b9565b82525050565b60006139a6600d83613f6c565b91506139b182614576565b602082019050919050565b60006139c9601983613f6c565b91506139d48261459f565b602082019050919050565b60006139ec602683613f6c565b91506139f7826145c8565b604082019050919050565b6000613a0f601083613f6c565b9150613a1a82614617565b602082019050919050565b6000613a32602083613f6c565b9150613a3d82614640565b602082019050919050565b6000613a55601583613f6c565b9150613a6082614669565b602082019050919050565b6000613a78601f83613f6c565b9150613a8382614692565b602082019050919050565b61010082016000820151613aa5600085018261388a565b506020820151613ab8602085018261388a565b506040820151613acb6040850182613b3f565b506060820151613ade606085018261388a565b506080820151613af16080850182613b5d565b5060a0820151613b0460a0850182613b5d565b5060c0820151613b1760c0850182613b5d565b5060e0820151613b2a60e0850182613b30565b50505050565b613b39816142bb565b82525050565b613b48816142db565b82525050565b613b57816142db565b82525050565b613b66816142ea565b82525050565b613b75816142ea565b82525050565b6000602082019050613b906000830184613899565b92915050565b6000604082019050613bab600083018561386c565b613bb86020830184613b6c565b9392505050565b6000606082019050613bd46000830186613899565b613be16020830185613899565b613bee6040830184613b6c565b949350505050565b6000604082019050613c0b6000830185613899565b613c186020830184613b6c565b9392505050565b60006020820190508181036000830152613c3981846138a8565b905092915050565b6000602082019050613c566000830184613906565b92915050565b6000604082019050613c716000830185613906565b8181036020830152613c838184613915565b90509392505050565b6000602082019050613ca1600083018461394e565b92915050565b6000602082019050613cbc600083018461395d565b92915050565b6000602082019050613cd7600083018461396c565b92915050565b6000602082019050613cf2600083018461397b565b92915050565b60006020820190508181036000830152613d1181613999565b9050919050565b60006020820190508181036000830152613d31816139bc565b9050919050565b60006020820190508181036000830152613d51816139df565b9050919050565b60006020820190508181036000830152613d7181613a02565b9050919050565b60006020820190508181036000830152613d9181613a25565b9050919050565b60006020820190508181036000830152613db181613a48565b9050919050565b60006020820190508181036000830152613dd181613a6b565b9050919050565b600061010082019050613dee6000830184613a8e565b92915050565b6000602082019050613e096000830184613b4e565b92915050565b6000602082019050613e246000830184613b6c565b92915050565b600061014082019050613e40600083018d613b6c565b613e4d602083018c613b6c565b613e5a604083018b613b6c565b613e67606083018a613b6c565b613e746080830189613b6c565b613e8160a0830188613b6c565b613e8e60c0830187613b6c565b613e9b60e083018661398a565b613ea961010083018561387b565b613eb761012083018461387b565b9b9a5050505050505050505050565b6000613ed0613ee1565b9050613edc8282614422565b919050565b6000604051905090565b600067ffffffffffffffff821115613f0657613f05614529565b5b602082029050602081019050919050565b6000819050602082019050919050565b600081519050919050565b600081519050919050565b6000602082019050919050565b600082825260208201905092915050565b600082825260208201905092915050565b600082825260208201905092915050565b6000613f88826142ea565b9150613f93836142ea565b9250827fffffffffffffffffffffffffffffffffffffffffffffffffffffffffffffffff03821115613fc857613fc761449c565b5b828201905092915050565b6000613fde826142f4565b9150613fe9836142f4565b92508260ff03821115613fff57613ffe61449c565b5b828201905092915050565b6000614015826142ea565b9150614020836142ea565b9250826140305761402f6144cb565b5b828204905092915050565b6000808291508390505b6001851115614085578086048111156140615761406061449c565b5b60018516156140705780820291505b808102905061407e85614569565b9450614045565b94509492505050565b6000614099826142ea565b91506140a4836142f4565b92506140d17fffffffffffffffffffffffffffffffffffffffffffffffffffffffffffffffff84846140d9565b905092915050565b6000826140e957600190506141a5565b816140f757600090506141a5565b816001811461410d576002811461411757614146565b60019150506141a5565b60ff8411156141295761412861449c565b5b8360020a9150848211156141405761413f61449c565b5b506141a5565b5060208310610133831016604e8410600b841016171561417b5782820a9050838111156141765761417561449c565b5b6141a5565b614188848484600161403b565b9250905081840481111561419f5761419e61449c565b5b81810290505b9392505050565b60006141b7826142ea565b91506141c2836142ea565b9250817fffffffffffffffffffffffffffffffffffffffffffffffffffffffffffffffff04831182151516156141fb576141fa61449c565b5b828202905092915050565b6000614211826142ea565b915061421c836142ea565b92508282101561422f5761422e61449c565b5b828203905092915050565b6000614245826142f4565b9150614250836142f4565b9250828210156142635761426261449c565b5b828203905092915050565b6000614279826142bb565b9050919050565b600061428b826142bb565b9050919050565b60008115159050919050565b60008190506142ac826146bb565b919050565b6000819050919050565b600073ffffffffffffffffffffffffffffffffffffffff82169050919050565b600062ffffff82169050919050565b6000819050919050565b600060ff82169050919050565b600069ffffffffffffffffffff82169050919050565b6000614322826143cb565b9050919050565b60006143348261433b565b9050919050565b6000614346826142bb565b9050919050565b60006143588261435f565b9050919050565b600061436a826142bb565b9050919050565b600061437c82614383565b9050919050565b600061438e826142bb565b9050919050565b60006143a0826143a7565b9050919050565b60006143b2826142bb565b9050919050565b60006143c48261429e565b9050919050565b60006143d6826143dd565b9050919050565b60006143e8826142bb565b9050919050565b60005b8381101561440d5780820151818401526020810190506143f2565b8381111561441c576000848401525b50505050565b61442b82614558565b810181811067ffffffffffffffff8211171561444a57614449614529565b5b80604052505050565b600061445e826142ea565b91507fffffffffffffffffffffffffffffffffffffffffffffffffffffffffffffffff8214156144915761449061449c565b5b600182019050919050565b7f4e487b7100000000000000000000000000000000000000000000000000000000600052601160045260246000fd5b7f4e487b7100000000000000000000000000000000000000000000000000000000600052601260045260246000fd5b7f4e487b7100000000000000000000000000000000000000000000000000000000600052602160045260246000fd5b7f4e487b7100000000000000000000000000000000000000000000000000000000600052604160045260246000fd5b6000601f19601f8301169050919050565b60008160011c9050919050565b7f45544820213d20616d6f756e7400000000000000000000000000000000000000600082015250565b7f41677265656d656e74206e6f7420736574746c65642079657400000000000000600082015250565b7f4f776e61626c653a206e6577206f776e657220697320746865207a65726f206160008201527f6464726573730000000000000000000000000000000000000000000000000000602082015250565b7f5061757361626c653a2070617573656400000000000000000000000000000000600082015250565b7f4f776e61626c653a2063616c6c6572206973206e6f7420746865206f776e6572600082015250565b7f4e6f7420656e6f75676820636f6c6c61746572616c0000000000000000000000600082015250565b7f5265656e7472616e637947756172643a207265656e7472616e742063616c6c00600082015250565b600481106146cc576146cb6144fa565b5b50565b6146d88161426e565b81146146e357600080fd5b50565b6146ef81614292565b81146146fa57600080fd5b50565b614706816142b1565b811461471157600080fd5b50565b61471d816142ea565b811461472857600080fd5b50565b614734816142f4565b811461473f57600080fd5b50565b61474b81614301565b811461475657600080fd5b5056fea2646970667358221220e2c33ac5f491e331281ca02f161e99eb83399f6394c564b0aeb7c606e892821a64736f6c63430008040033",
  "devdoc": {
    "kind": "dev",
    "methods": {
      "owner()": {
        "details": "Returns the address of the current owner."
      },
      "paused()": {
        "details": "Returns true if the contract is paused, and false otherwise."
      },
      "performUpkeep(bytes)": {
        "details": "The input to this method should not be trusted, and the caller of the method should not even be restricted to any single registry. Anyone should be able call it, and the input should be validated, there is no guarantee that the data passed in is the performData returned from checkUpkeep. This could happen due to malicious keepers, racing keepers, or simply a state change while the performUpkeep transaction is waiting for confirmation. Always validate the data passed in.",
        "params": {
          "performData": "is the data which was passed back from the checkData simulation. If it is encoded, it can easily be decoded into other types by calling `abi.decode`. This data should not be trusted, and should be validated against the contract's current state."
        }
      },
      "renounceOwnership()": {
        "details": "Leaves the contract without owner. It will not be possible to call `onlyOwner` functions anymore. Can only be called by the current owner. NOTE: Renouncing ownership will leave the contract without an owner, thereby removing any functionality that is only available to the owner."
      },
      "transferOwnership(address)": {
        "details": "Transfers ownership of the contract to a new account (`newOwner`). Can only be called by the current owner."
      }
    },
    "version": 1
  },
  "userdoc": {
    "kind": "user",
    "methods": {
      "performUpkeep(bytes)": {
        "notice": "method that is actually executed by the keepers, via the registry. The data returned by the checkUpkeep simulation will be passed into this method to actually be executed."
      }
    },
    "version": 1
  },
  "storageLayout": {
    "storage": [
      {
        "astId": 311,
        "contract": "contracts/LiquidatableExchange.sol:LiquidatableExchange",
        "label": "_status",
        "offset": 0,
        "slot": "0",
        "type": "t_uint256"
      },
      {
        "astId": 226,
        "contract": "contracts/LiquidatableExchange.sol:LiquidatableExchange",
        "label": "_paused",
        "offset": 0,
        "slot": "1",
        "type": "t_bool"
      },
      {
        "astId": 111,
        "contract": "contracts/LiquidatableExchange.sol:LiquidatableExchange",
        "label": "_owner",
        "offset": 1,
        "slot": "1",
        "type": "t_address"
      },
      {
        "astId": 662,
        "contract": "contracts/LiquidatableExchange.sol:LiquidatableExchange",
        "label": "s_idToAgreement",
        "offset": 0,
        "slot": "2",
        "type": "t_mapping(t_uint256,t_struct(Agreement)639_storage)"
      },
      {
        "astId": 667,
        "contract": "contracts/LiquidatableExchange.sol:LiquidatableExchange",
        "label": "s_accountToIDs",
        "offset": 0,
        "slot": "3",
        "type": "t_mapping(t_address,t_array(t_uint256)dyn_storage)"
      },
      {
        "astId": 669,
        "contract": "contracts/LiquidatableExchange.sol:LiquidatableExchange",
        "label": "s_numIDs",
        "offset": 0,
        "slot": "4",
        "type": "t_uint256"
      },
      {
        "astId": 672,
        "contract": "contracts/LiquidatableExchange.sol:LiquidatableExchange",
        "label": "s_lenderToken",
        "offset": 0,
        "slot": "5",
        "type": "t_contract(IToken)1946"
      },
      {
        "astId": 675,
        "contract": "contracts/LiquidatableExchange.sol:LiquidatableExchange",
        "label": "s_priceFeed",
        "offset": 0,
        "slot": "6",
        "type": "t_contract(AggregatorV3Interface)84"
      },
      {
        "astId": 1512,
        "contract": "contracts/LiquidatableExchange.sol:LiquidatableExchange",
        "label": "s_swapRouter",
        "offset": 0,
        "slot": "7",
        "type": "t_contract(IUniswapRouter)1981"
      },
      {
        "astId": 1515,
        "contract": "contracts/LiquidatableExchange.sol:LiquidatableExchange",
        "label": "s_wethToken",
        "offset": 0,
        "slot": "8",
        "type": "t_contract(IWETH)2001"
      },
      {
        "astId": 1517,
        "contract": "contracts/LiquidatableExchange.sol:LiquidatableExchange",
        "label": "s_keeperRegistryAddress",
        "offset": 0,
        "slot": "9",
        "type": "t_address"
      }
    ],
    "types": {
      "t_address": {
        "encoding": "inplace",
        "label": "address",
        "numberOfBytes": "20"
      },
      "t_address_payable": {
        "encoding": "inplace",
        "label": "address payable",
        "numberOfBytes": "20"
      },
      "t_array(t_uint256)dyn_storage": {
        "base": "t_uint256",
        "encoding": "dynamic_array",
        "label": "uint256[]",
        "numberOfBytes": "32"
      },
      "t_bool": {
        "encoding": "inplace",
        "label": "bool",
        "numberOfBytes": "1"
      },
      "t_contract(AggregatorV3Interface)84": {
        "encoding": "inplace",
        "label": "contract AggregatorV3Interface",
        "numberOfBytes": "20"
      },
      "t_contract(IToken)1946": {
        "encoding": "inplace",
        "label": "contract IToken",
        "numberOfBytes": "20"
      },
      "t_contract(IUniswapRouter)1981": {
        "encoding": "inplace",
        "label": "contract IUniswapRouter",
        "numberOfBytes": "20"
      },
      "t_contract(IWETH)2001": {
        "encoding": "inplace",
        "label": "contract IWETH",
        "numberOfBytes": "20"
      },
      "t_enum(Status)617": {
        "encoding": "inplace",
        "label": "enum Status",
        "numberOfBytes": "1"
      },
      "t_mapping(t_address,t_array(t_uint256)dyn_storage)": {
        "encoding": "mapping",
        "key": "t_address",
        "label": "mapping(address => uint256[])",
        "numberOfBytes": "32",
        "value": "t_array(t_uint256)dyn_storage"
      },
      "t_mapping(t_uint256,t_struct(Agreement)639_storage)": {
        "encoding": "mapping",
        "key": "t_uint256",
        "label": "mapping(uint256 => struct Agreement)",
        "numberOfBytes": "32",
        "value": "t_struct(Agreement)639_storage"
      },
      "t_struct(Agreement)639_storage": {
        "encoding": "inplace",
        "label": "struct Agreement",
        "members": [
          {
            "astId": 619,
            "contract": "contracts/LiquidatableExchange.sol:LiquidatableExchange",
            "label": "deposit",
            "offset": 0,
            "slot": "0",
            "type": "t_uint256"
          },
          {
            "astId": 621,
            "contract": "contracts/LiquidatableExchange.sol:LiquidatableExchange",
            "label": "collateral",
            "offset": 0,
            "slot": "1",
            "type": "t_uint256"
          },
          {
            "astId": 623,
            "contract": "contracts/LiquidatableExchange.sol:LiquidatableExchange",
            "label": "repaidAmt",
            "offset": 0,
            "slot": "2",
            "type": "t_uint256"
          },
          {
            "astId": 625,
            "contract": "contracts/LiquidatableExchange.sol:LiquidatableExchange",
            "label": "futureValue",
            "offset": 0,
            "slot": "3",
            "type": "t_uint256"
          },
          {
            "astId": 627,
            "contract": "contracts/LiquidatableExchange.sol:LiquidatableExchange",
            "label": "start",
            "offset": 0,
            "slot": "4",
            "type": "t_uint256"
          },
          {
            "astId": 629,
            "contract": "contracts/LiquidatableExchange.sol:LiquidatableExchange",
            "label": "duration",
            "offset": 0,
            "slot": "5",
            "type": "t_uint256"
          },
          {
            "astId": 631,
            "contract": "contracts/LiquidatableExchange.sol:LiquidatableExchange",
            "label": "rate",
            "offset": 0,
            "slot": "6",
            "type": "t_uint256"
          },
          {
            "astId": 634,
            "contract": "contracts/LiquidatableExchange.sol:LiquidatableExchange",
            "label": "status",
            "offset": 0,
            "slot": "7",
            "type": "t_enum(Status)617"
          },
          {
            "astId": 636,
            "contract": "contracts/LiquidatableExchange.sol:LiquidatableExchange",
            "label": "lender",
            "offset": 1,
            "slot": "7",
            "type": "t_address_payable"
          },
          {
            "astId": 638,
            "contract": "contracts/LiquidatableExchange.sol:LiquidatableExchange",
            "label": "borrower",
            "offset": 0,
            "slot": "8",
            "type": "t_address_payable"
          }
        ],
        "numberOfBytes": "288"
      },
      "t_uint256": {
        "encoding": "inplace",
        "label": "uint256",
        "numberOfBytes": "32"
      }
    }
  }
}